{
  "address": "0x9967F8dE0b858efC6ffFBe22C7C87aC5935C6cF9",
  "abi": [
    {
      "inputs": [],
      "stateMutability": "nonpayable",
      "type": "constructor"
    },
    {
      "inputs": [],
      "name": "AddInListFailed",
      "type": "error"
    },
    {
      "inputs": [
        {
          "internalType": "address",
          "name": "target",
          "type": "address"
        }
      ],
      "name": "AddressEmptyCode",
      "type": "error"
    },
    {
      "inputs": [],
      "name": "AddressIsNull",
      "type": "error"
    },
    {
      "inputs": [],
      "name": "AmountIsBelowDepositLimit",
      "type": "error"
    },
    {
      "inputs": [],
      "name": "ArrayLengthMismatch",
      "type": "error"
    },
    {
      "inputs": [
        {
          "internalType": "uint256",
          "name": "_maxWithdrawable",
          "type": "uint256"
        }
      ],
      "name": "AssetsCanNotBeWithdrawn",
      "type": "error"
    },
    {
      "inputs": [],
      "name": "CallerIsNotKeeper",
      "type": "error"
    },
    {
      "inputs": [],
      "name": "CallerIsNotMaintainer",
      "type": "error"
    },
    {
      "inputs": [],
      "name": "ECDSAInvalidSignature",
      "type": "error"
    },
    {
      "inputs": [
        {
          "internalType": "uint256",
          "name": "length",
          "type": "uint256"
        }
      ],
      "name": "ECDSAInvalidSignatureLength",
      "type": "error"
    },
    {
      "inputs": [
        {
          "internalType": "bytes32",
          "name": "s",
          "type": "bytes32"
        }
      ],
      "name": "ECDSAInvalidSignatureS",
      "type": "error"
    },
    {
      "inputs": [
        {
          "internalType": "address",
          "name": "implementation",
          "type": "address"
        }
      ],
      "name": "ERC1967InvalidImplementation",
      "type": "error"
    },
    {
      "inputs": [],
      "name": "ERC1967NonPayable",
      "type": "error"
    },
    {
      "inputs": [
        {
          "internalType": "address",
          "name": "spender",
          "type": "address"
        },
        {
          "internalType": "uint256",
          "name": "allowance",
          "type": "uint256"
        },
        {
          "internalType": "uint256",
          "name": "needed",
          "type": "uint256"
        }
      ],
      "name": "ERC20InsufficientAllowance",
      "type": "error"
    },
    {
      "inputs": [
        {
          "internalType": "address",
          "name": "sender",
          "type": "address"
        },
        {
          "internalType": "uint256",
          "name": "balance",
          "type": "uint256"
        },
        {
          "internalType": "uint256",
          "name": "needed",
          "type": "uint256"
        }
      ],
      "name": "ERC20InsufficientBalance",
      "type": "error"
    },
    {
      "inputs": [
        {
          "internalType": "address",
          "name": "approver",
          "type": "address"
        }
      ],
      "name": "ERC20InvalidApprover",
      "type": "error"
    },
    {
      "inputs": [
        {
          "internalType": "address",
          "name": "receiver",
          "type": "address"
        }
      ],
      "name": "ERC20InvalidReceiver",
      "type": "error"
    },
    {
      "inputs": [
        {
          "internalType": "address",
          "name": "sender",
          "type": "address"
        }
      ],
      "name": "ERC20InvalidSender",
      "type": "error"
    },
    {
      "inputs": [
        {
          "internalType": "address",
          "name": "spender",
          "type": "address"
        }
      ],
      "name": "ERC20InvalidSpender",
      "type": "error"
    },
    {
      "inputs": [
        {
          "internalType": "uint256",
          "name": "deadline",
          "type": "uint256"
        }
      ],
      "name": "ERC2612ExpiredSignature",
      "type": "error"
    },
    {
      "inputs": [
        {
          "internalType": "address",
          "name": "signer",
          "type": "address"
        },
        {
          "internalType": "address",
          "name": "owner",
          "type": "address"
        }
      ],
      "name": "ERC2612InvalidSigner",
      "type": "error"
    },
    {
      "inputs": [
        {
          "internalType": "address",
          "name": "receiver",
          "type": "address"
        },
        {
          "internalType": "uint256",
          "name": "assets",
          "type": "uint256"
        },
        {
          "internalType": "uint256",
          "name": "max",
          "type": "uint256"
        }
      ],
      "name": "ERC4626ExceededMaxDeposit",
      "type": "error"
    },
    {
      "inputs": [
        {
          "internalType": "address",
          "name": "receiver",
          "type": "address"
        },
        {
          "internalType": "uint256",
          "name": "shares",
          "type": "uint256"
        },
        {
          "internalType": "uint256",
          "name": "max",
          "type": "uint256"
        }
      ],
      "name": "ERC4626ExceededMaxMint",
      "type": "error"
    },
    {
      "inputs": [
        {
          "internalType": "address",
          "name": "owner",
          "type": "address"
        },
        {
          "internalType": "uint256",
          "name": "shares",
          "type": "uint256"
        },
        {
          "internalType": "uint256",
          "name": "max",
          "type": "uint256"
        }
      ],
      "name": "ERC4626ExceededMaxRedeem",
      "type": "error"
    },
    {
      "inputs": [
        {
          "internalType": "address",
          "name": "owner",
          "type": "address"
        },
        {
          "internalType": "uint256",
          "name": "assets",
          "type": "uint256"
        },
        {
          "internalType": "uint256",
          "name": "max",
          "type": "uint256"
        }
      ],
      "name": "ERC4626ExceededMaxWithdraw",
      "type": "error"
    },
    {
      "inputs": [],
      "name": "EnforcedPause",
      "type": "error"
    },
    {
      "inputs": [],
      "name": "EnforcedShutdown",
      "type": "error"
    },
    {
      "inputs": [],
      "name": "ExpectedPause",
      "type": "error"
    },
    {
      "inputs": [],
      "name": "ExpectedShutdown",
      "type": "error"
    },
    {
      "inputs": [],
      "name": "FailedCall",
      "type": "error"
    },
    {
      "inputs": [],
      "name": "FromTokenCannotBeAsset",
      "type": "error"
    },
    {
      "inputs": [],
      "name": "InputIsHigherThanMaxLimit",
      "type": "error"
    },
    {
      "inputs": [],
      "name": "InsufficientBalance",
      "type": "error"
    },
    {
      "inputs": [
        {
          "internalType": "address",
          "name": "account",
          "type": "address"
        },
        {
          "internalType": "uint256",
          "name": "currentNonce",
          "type": "uint256"
        }
      ],
      "name": "InvalidAccountNonce",
      "type": "error"
    },
    {
      "inputs": [],
      "name": "InvalidDebtRatio",
      "type": "error"
    },
    {
      "inputs": [],
      "name": "InvalidInitialization",
      "type": "error"
    },
    {
      "inputs": [],
      "name": "LossTooHigh",
      "type": "error"
    },
    {
      "inputs": [],
      "name": "MinimumDepositLimitCannotBeZero",
      "type": "error"
    },
    {
      "inputs": [],
      "name": "NotInitializing",
      "type": "error"
    },
    {
      "inputs": [
        {
          "internalType": "address",
          "name": "owner",
          "type": "address"
        }
      ],
      "name": "OwnableInvalidOwner",
      "type": "error"
    },
    {
      "inputs": [
        {
          "internalType": "address",
          "name": "account",
          "type": "address"
        }
      ],
      "name": "OwnableUnauthorizedAccount",
      "type": "error"
    },
    {
      "inputs": [
        {
          "internalType": "address",
          "name": "",
          "type": "address"
        },
        {
          "internalType": "address",
          "name": "",
          "type": "address"
        }
      ],
      "name": "OwnerMismatch",
      "type": "error"
    },
    {
      "inputs": [],
      "name": "RemoveFromListFailed",
      "type": "error"
    },
    {
      "inputs": [
        {
          "internalType": "address",
          "name": "token",
          "type": "address"
        }
      ],
      "name": "SafeERC20FailedOperation",
      "type": "error"
    },
    {
      "inputs": [],
      "name": "StrategyIsActive",
      "type": "error"
    },
    {
      "inputs": [],
      "name": "StrategyIsNotActive",
      "type": "error"
    },
    {
      "inputs": [],
      "name": "TotalDebtShouldBeZero",
      "type": "error"
    },
    {
      "inputs": [],
      "name": "UUPSUnauthorizedCallContext",
      "type": "error"
    },
    {
      "inputs": [
        {
          "internalType": "bytes32",
          "name": "slot",
          "type": "bytes32"
        }
      ],
      "name": "UUPSUnsupportedProxiableUUID",
      "type": "error"
    },
    {
      "inputs": [],
      "name": "ZeroAssets",
      "type": "error"
    },
    {
      "inputs": [],
      "name": "ZeroShares",
      "type": "error"
    },
    {
      "anonymous": false,
      "inputs": [
        {
          "indexed": true,
          "internalType": "address",
          "name": "owner",
          "type": "address"
        },
        {
          "indexed": true,
          "internalType": "address",
          "name": "spender",
          "type": "address"
        },
        {
          "indexed": false,
          "internalType": "uint256",
          "name": "value",
          "type": "uint256"
        }
      ],
      "name": "Approval",
      "type": "event"
    },
    {
      "anonymous": false,
      "inputs": [
        {
          "indexed": true,
          "internalType": "address",
          "name": "sender",
          "type": "address"
        },
        {
          "indexed": true,
          "internalType": "address",
          "name": "owner",
          "type": "address"
        },
        {
          "indexed": false,
          "internalType": "uint256",
          "name": "assets",
          "type": "uint256"
        },
        {
          "indexed": false,
          "internalType": "uint256",
          "name": "shares",
          "type": "uint256"
        }
      ],
      "name": "Deposit",
      "type": "event"
    },
    {
      "anonymous": false,
      "inputs": [],
      "name": "EIP712DomainChanged",
      "type": "event"
    },
    {
      "anonymous": false,
      "inputs": [
        {
          "indexed": true,
          "internalType": "address",
          "name": "strategy",
          "type": "address"
        },
        {
          "indexed": false,
          "internalType": "uint256",
          "name": "profit",
          "type": "uint256"
        },
        {
          "indexed": false,
          "internalType": "uint256",
          "name": "loss",
          "type": "uint256"
        },
        {
          "indexed": false,
          "internalType": "uint256",
          "name": "payback",
          "type": "uint256"
        },
        {
          "indexed": false,
          "internalType": "uint256",
          "name": "strategyDebt",
          "type": "uint256"
        },
        {
          "indexed": false,
          "internalType": "uint256",
          "name": "vaultDebt",
          "type": "uint256"
        },
        {
          "indexed": false,
          "internalType": "uint256",
          "name": "creditLine",
          "type": "uint256"
        }
      ],
      "name": "EarningReported",
      "type": "event"
    },
    {
      "anonymous": false,
      "inputs": [
        {
          "indexed": false,
          "internalType": "uint64",
          "name": "version",
          "type": "uint64"
        }
      ],
      "name": "Initialized",
      "type": "event"
    },
    {
      "anonymous": false,
      "inputs": [
        {
          "indexed": true,
          "internalType": "address",
          "name": "strategy",
          "type": "address"
        },
        {
          "indexed": false,
          "internalType": "uint256",
          "name": "loss",
          "type": "uint256"
        }
      ],
      "name": "LossReported",
      "type": "event"
    },
    {
      "anonymous": false,
      "inputs": [
        {
          "indexed": true,
          "internalType": "address",
          "name": "previousOwner",
          "type": "address"
        },
        {
          "indexed": true,
          "internalType": "address",
          "name": "newOwner",
          "type": "address"
        }
      ],
      "name": "OwnershipTransferStarted",
      "type": "event"
    },
    {
      "anonymous": false,
      "inputs": [
        {
          "indexed": true,
          "internalType": "address",
          "name": "previousOwner",
          "type": "address"
        },
        {
          "indexed": true,
          "internalType": "address",
          "name": "newOwner",
          "type": "address"
        }
      ],
      "name": "OwnershipTransferred",
      "type": "event"
    },
    {
      "anonymous": false,
      "inputs": [
        {
          "indexed": false,
          "internalType": "address",
          "name": "account",
          "type": "address"
        }
      ],
      "name": "Paused",
      "type": "event"
    },
    {
      "anonymous": false,
      "inputs": [
        {
          "indexed": false,
          "internalType": "address",
          "name": "account",
          "type": "address"
        }
      ],
      "name": "Restart",
      "type": "event"
    },
    {
      "anonymous": false,
      "inputs": [
        {
          "indexed": false,
          "internalType": "address",
          "name": "account",
          "type": "address"
        }
      ],
      "name": "Shutdown",
      "type": "event"
    },
    {
      "anonymous": false,
      "inputs": [
        {
          "indexed": true,
          "internalType": "address",
          "name": "strategy",
          "type": "address"
        },
        {
          "indexed": false,
          "internalType": "uint256",
          "name": "debtRatio",
          "type": "uint256"
        }
      ],
      "name": "StrategyAdded",
      "type": "event"
    },
    {
      "anonymous": false,
      "inputs": [
        {
          "indexed": true,
          "internalType": "address",
          "name": "strategy",
          "type": "address"
        }
      ],
      "name": "StrategyRemoved",
      "type": "event"
    },
    {
      "anonymous": false,
      "inputs": [
        {
          "indexed": true,
          "internalType": "address",
          "name": "from",
          "type": "address"
        },
        {
          "indexed": true,
          "internalType": "address",
          "name": "to",
          "type": "address"
        },
        {
          "indexed": false,
          "internalType": "uint256",
          "name": "value",
          "type": "uint256"
        }
      ],
      "name": "Transfer",
      "type": "event"
    },
    {
      "anonymous": false,
      "inputs": [
        {
          "indexed": false,
          "internalType": "uint256",
          "name": "strategyDebt",
          "type": "uint256"
        },
        {
          "indexed": false,
          "internalType": "uint256",
          "name": "profit",
          "type": "uint256"
        },
        {
          "indexed": false,
          "internalType": "uint256",
          "name": "fee",
          "type": "uint256"
        }
      ],
      "name": "UniversalFeePaid",
      "type": "event"
    },
    {
      "anonymous": false,
      "inputs": [
        {
          "indexed": false,
          "internalType": "address",
          "name": "account",
          "type": "address"
        }
      ],
      "name": "Unpaused",
      "type": "event"
    },
    {
      "anonymous": false,
      "inputs": [
        {
          "indexed": false,
          "internalType": "uint256",
          "name": "oldMaxProfitAsFee",
          "type": "uint256"
        },
        {
          "indexed": false,
          "internalType": "uint256",
          "name": "newMaxProfitAsFee",
          "type": "uint256"
        }
      ],
      "name": "UpdatedMaximumProfitAsFee",
      "type": "event"
    },
    {
      "anonymous": false,
      "inputs": [
        {
          "indexed": false,
          "internalType": "uint256",
          "name": "oldDepositLimit",
          "type": "uint256"
        },
        {
          "indexed": false,
          "internalType": "uint256",
          "name": "newDepositLimit",
          "type": "uint256"
        }
      ],
      "name": "UpdatedMinimumDepositLimit",
      "type": "event"
    },
    {
      "anonymous": false,
      "inputs": [
        {
          "indexed": true,
          "internalType": "address",
          "name": "strategy",
          "type": "address"
        },
        {
          "indexed": false,
          "internalType": "uint256",
          "name": "oldDebtRatio",
          "type": "uint256"
        },
        {
          "indexed": false,
          "internalType": "uint256",
          "name": "newDebtRatio",
          "type": "uint256"
        }
      ],
      "name": "UpdatedStrategyDebtRatio",
      "type": "event"
    },
    {
      "anonymous": false,
      "inputs": [
        {
          "indexed": false,
          "internalType": "uint256",
          "name": "oldUniversalFee",
          "type": "uint256"
        },
        {
          "indexed": false,
          "internalType": "uint256",
          "name": "newUniversalFee",
          "type": "uint256"
        }
      ],
      "name": "UpdatedUniversalFee",
      "type": "event"
    },
    {
      "anonymous": false,
      "inputs": [
        {
          "indexed": true,
          "internalType": "address",
          "name": "previousVaultRewards",
          "type": "address"
        },
        {
          "indexed": true,
          "internalType": "address",
          "name": "newVaultRewards",
          "type": "address"
        }
      ],
      "name": "UpdatedVaultRewards",
      "type": "event"
    },
    {
      "anonymous": false,
      "inputs": [],
      "name": "UpdatedWithdrawQueue",
      "type": "event"
    },
    {
      "anonymous": false,
      "inputs": [
        {
          "indexed": true,
          "internalType": "address",
          "name": "implementation",
          "type": "address"
        }
      ],
      "name": "Upgraded",
      "type": "event"
    },
    {
      "anonymous": false,
      "inputs": [
        {
          "indexed": true,
          "internalType": "address",
          "name": "sender",
          "type": "address"
        },
        {
          "indexed": true,
          "internalType": "address",
          "name": "receiver",
          "type": "address"
        },
        {
          "indexed": true,
          "internalType": "address",
          "name": "owner",
          "type": "address"
        },
        {
          "indexed": false,
          "internalType": "uint256",
          "name": "assets",
          "type": "uint256"
        },
        {
          "indexed": false,
          "internalType": "uint256",
          "name": "shares",
          "type": "uint256"
        }
      ],
      "name": "Withdraw",
      "type": "event"
    },
    {
      "inputs": [],
      "name": "DOMAIN_SEPARATOR",
      "outputs": [
        {
          "internalType": "bytes32",
          "name": "",
          "type": "bytes32"
        }
      ],
      "stateMutability": "view",
      "type": "function"
    },
    {
      "inputs": [],
      "name": "UPGRADE_INTERFACE_VERSION",
      "outputs": [
        {
          "internalType": "string",
          "name": "",
          "type": "string"
        }
      ],
      "stateMutability": "view",
      "type": "function"
    },
    {
      "inputs": [],
      "name": "acceptOwnership",
      "outputs": [],
      "stateMutability": "nonpayable",
      "type": "function"
    },
    {
      "inputs": [
        {
          "internalType": "address",
          "name": "keeperAddress_",
          "type": "address"
        }
      ],
      "name": "addKeeper",
      "outputs": [],
      "stateMutability": "nonpayable",
      "type": "function"
    },
    {
      "inputs": [
        {
          "internalType": "address",
          "name": "maintainerAddress_",
          "type": "address"
        }
      ],
      "name": "addMaintainer",
      "outputs": [],
      "stateMutability": "nonpayable",
      "type": "function"
    },
    {
      "inputs": [
        {
          "internalType": "address",
          "name": "strategy_",
          "type": "address"
        },
        {
          "internalType": "uint256",
          "name": "debtRatio_",
          "type": "uint256"
        }
      ],
      "name": "addStrategy",
      "outputs": [],
      "stateMutability": "nonpayable",
      "type": "function"
    },
    {
      "inputs": [
        {
          "internalType": "address",
          "name": "owner",
          "type": "address"
        },
        {
          "internalType": "address",
          "name": "spender",
          "type": "address"
        }
      ],
      "name": "allowance",
      "outputs": [
        {
          "internalType": "uint256",
          "name": "",
          "type": "uint256"
        }
      ],
      "stateMutability": "view",
      "type": "function"
    },
    {
      "inputs": [
        {
          "internalType": "address",
          "name": "spender",
          "type": "address"
        },
        {
          "internalType": "uint256",
          "name": "value",
          "type": "uint256"
        }
      ],
      "name": "approve",
      "outputs": [
        {
          "internalType": "bool",
          "name": "",
          "type": "bool"
        }
      ],
      "stateMutability": "nonpayable",
      "type": "function"
    },
    {
      "inputs": [],
      "name": "asset",
      "outputs": [
        {
          "internalType": "address",
          "name": "",
          "type": "address"
        }
      ],
      "stateMutability": "view",
      "type": "function"
    },
    {
      "inputs": [
        {
          "internalType": "address",
          "name": "account",
          "type": "address"
        }
      ],
      "name": "balanceOf",
      "outputs": [
        {
          "internalType": "uint256",
          "name": "",
          "type": "uint256"
        }
      ],
      "stateMutability": "view",
      "type": "function"
    },
    {
      "inputs": [
        {
          "internalType": "uint256",
          "name": "shares",
          "type": "uint256"
        }
      ],
      "name": "convertToAssets",
      "outputs": [
        {
          "internalType": "uint256",
          "name": "",
          "type": "uint256"
        }
      ],
      "stateMutability": "view",
      "type": "function"
    },
    {
      "inputs": [
        {
          "internalType": "uint256",
          "name": "assets",
          "type": "uint256"
        }
      ],
      "name": "convertToShares",
      "outputs": [
        {
          "internalType": "uint256",
          "name": "",
          "type": "uint256"
        }
      ],
      "stateMutability": "view",
      "type": "function"
    },
    {
      "inputs": [],
      "name": "decimals",
      "outputs": [
        {
          "internalType": "uint8",
          "name": "",
          "type": "uint8"
        }
      ],
      "stateMutability": "view",
      "type": "function"
    },
    {
      "inputs": [
        {
          "internalType": "uint256",
          "name": "assets",
          "type": "uint256"
        },
        {
          "internalType": "address",
          "name": "receiver",
          "type": "address"
        }
      ],
      "name": "deposit",
      "outputs": [
        {
          "internalType": "uint256",
          "name": "",
          "type": "uint256"
        }
      ],
      "stateMutability": "nonpayable",
      "type": "function"
    },
    {
      "inputs": [],
      "name": "eip712Domain",
      "outputs": [
        {
          "internalType": "bytes1",
          "name": "fields",
          "type": "bytes1"
        },
        {
          "internalType": "string",
          "name": "name",
          "type": "string"
        },
        {
          "internalType": "string",
          "name": "version",
          "type": "string"
        },
        {
          "internalType": "uint256",
          "name": "chainId",
          "type": "uint256"
        },
        {
          "internalType": "address",
          "name": "verifyingContract",
          "type": "address"
        },
        {
          "internalType": "bytes32",
          "name": "salt",
          "type": "bytes32"
        },
        {
          "internalType": "uint256[]",
          "name": "extensions",
          "type": "uint256[]"
        }
      ],
      "stateMutability": "view",
      "type": "function"
    },
    {
      "inputs": [
        {
          "internalType": "address",
          "name": "strategy_",
          "type": "address"
        }
      ],
      "name": "excessDebt",
      "outputs": [
        {
          "internalType": "uint256",
          "name": "",
          "type": "uint256"
        }
      ],
      "stateMutability": "view",
      "type": "function"
    },
    {
      "inputs": [],
      "name": "getStrategies",
      "outputs": [
        {
          "internalType": "address[]",
          "name": "",
          "type": "address[]"
        }
      ],
      "stateMutability": "view",
      "type": "function"
    },
    {
      "inputs": [
        {
          "internalType": "address",
          "name": "strategy_",
          "type": "address"
        }
      ],
      "name": "getStrategyConfig",
      "outputs": [
        {
          "components": [
            {
              "internalType": "bool",
              "name": "active",
              "type": "bool"
            },
            {
              "internalType": "uint256",
              "name": "lastRebalance",
              "type": "uint256"
            },
            {
              "internalType": "uint256",
              "name": "totalDebt",
              "type": "uint256"
            },
            {
              "internalType": "uint256",
              "name": "totalLoss",
              "type": "uint256"
            },
            {
              "internalType": "uint256",
              "name": "totalProfit",
              "type": "uint256"
            },
            {
              "internalType": "uint256",
              "name": "debtRatio",
              "type": "uint256"
            }
          ],
          "internalType": "struct YieldVault.StrategyConfig",
          "name": "",
          "type": "tuple"
        }
      ],
      "stateMutability": "view",
      "type": "function"
    },
    {
      "inputs": [],
      "name": "getWithdrawQueue",
      "outputs": [
        {
          "internalType": "address[]",
          "name": "",
          "type": "address[]"
        }
      ],
      "stateMutability": "view",
      "type": "function"
    },
    {
      "inputs": [],
      "name": "governor",
      "outputs": [
        {
          "internalType": "address",
          "name": "",
          "type": "address"
        }
      ],
      "stateMutability": "view",
      "type": "function"
    },
    {
      "inputs": [
        {
          "internalType": "string",
          "name": "name_",
          "type": "string"
        },
        {
          "internalType": "string",
          "name": "symbol_",
          "type": "string"
        },
        {
          "internalType": "address",
          "name": "asset_",
          "type": "address"
        },
        {
          "internalType": "address",
          "name": "owner_",
          "type": "address"
        }
      ],
      "name": "initialize",
      "outputs": [],
      "stateMutability": "nonpayable",
      "type": "function"
    },
    {
      "inputs": [
        {
          "internalType": "address",
          "name": "address_",
          "type": "address"
        }
      ],
      "name": "isKeeper",
      "outputs": [
        {
          "internalType": "bool",
          "name": "",
          "type": "bool"
        }
      ],
      "stateMutability": "view",
      "type": "function"
    },
    {
      "inputs": [
        {
          "internalType": "address",
          "name": "address_",
          "type": "address"
        }
      ],
      "name": "isMaintainer",
      "outputs": [
        {
          "internalType": "bool",
          "name": "",
          "type": "bool"
        }
      ],
      "stateMutability": "view",
      "type": "function"
    },
    {
      "inputs": [],
      "name": "isShutdown",
      "outputs": [
        {
          "internalType": "bool",
          "name": "",
          "type": "bool"
        }
      ],
      "stateMutability": "view",
      "type": "function"
    },
    {
      "inputs": [],
      "name": "keepers",
      "outputs": [
        {
          "internalType": "address[]",
          "name": "",
          "type": "address[]"
        }
      ],
      "stateMutability": "view",
      "type": "function"
    },
    {
      "inputs": [],
      "name": "maintainers",
      "outputs": [
        {
          "internalType": "address[]",
          "name": "",
          "type": "address[]"
        }
      ],
      "stateMutability": "view",
      "type": "function"
    },
    {
      "inputs": [
        {
          "internalType": "address",
          "name": "",
          "type": "address"
        }
      ],
      "name": "maxDeposit",
      "outputs": [
        {
          "internalType": "uint256",
          "name": "",
          "type": "uint256"
        }
      ],
      "stateMutability": "view",
      "type": "function"
    },
    {
      "inputs": [
        {
          "internalType": "address",
          "name": "",
          "type": "address"
        }
      ],
      "name": "maxMint",
      "outputs": [
        {
          "internalType": "uint256",
          "name": "",
          "type": "uint256"
        }
      ],
      "stateMutability": "view",
      "type": "function"
    },
    {
      "inputs": [],
      "name": "maxProfitAsFee",
      "outputs": [
        {
          "internalType": "uint256",
          "name": "",
          "type": "uint256"
        }
      ],
      "stateMutability": "view",
      "type": "function"
    },
    {
      "inputs": [
        {
          "internalType": "address",
          "name": "owner",
          "type": "address"
        }
      ],
      "name": "maxRedeem",
      "outputs": [
        {
          "internalType": "uint256",
          "name": "",
          "type": "uint256"
        }
      ],
      "stateMutability": "view",
      "type": "function"
    },
    {
      "inputs": [
        {
          "internalType": "address",
          "name": "owner",
          "type": "address"
        }
      ],
      "name": "maxWithdraw",
      "outputs": [
        {
          "internalType": "uint256",
          "name": "",
          "type": "uint256"
        }
      ],
      "stateMutability": "view",
      "type": "function"
    },
    {
      "inputs": [],
      "name": "minimumDepositLimit",
      "outputs": [
        {
          "internalType": "uint256",
          "name": "",
          "type": "uint256"
        }
      ],
      "stateMutability": "view",
      "type": "function"
    },
    {
      "inputs": [
        {
          "internalType": "uint256",
          "name": "shares",
          "type": "uint256"
        },
        {
          "internalType": "address",
          "name": "receiver",
          "type": "address"
        }
      ],
      "name": "mint",
      "outputs": [
        {
          "internalType": "uint256",
          "name": "",
          "type": "uint256"
        }
      ],
      "stateMutability": "nonpayable",
      "type": "function"
    },
    {
      "inputs": [],
      "name": "name",
      "outputs": [
        {
          "internalType": "string",
          "name": "",
          "type": "string"
        }
      ],
      "stateMutability": "view",
      "type": "function"
    },
    {
      "inputs": [
        {
          "internalType": "address",
          "name": "owner",
          "type": "address"
        }
      ],
      "name": "nonces",
      "outputs": [
        {
          "internalType": "uint256",
          "name": "",
          "type": "uint256"
        }
      ],
      "stateMutability": "view",
      "type": "function"
    },
    {
      "inputs": [],
      "name": "owner",
      "outputs": [
        {
          "internalType": "address",
          "name": "",
          "type": "address"
        }
      ],
      "stateMutability": "view",
      "type": "function"
    },
    {
      "inputs": [],
      "name": "pause",
      "outputs": [],
      "stateMutability": "nonpayable",
      "type": "function"
    },
    {
      "inputs": [],
      "name": "paused",
      "outputs": [
        {
          "internalType": "bool",
          "name": "",
          "type": "bool"
        }
      ],
      "stateMutability": "view",
      "type": "function"
    },
    {
      "inputs": [],
      "name": "pendingOwner",
      "outputs": [
        {
          "internalType": "address",
          "name": "",
          "type": "address"
        }
      ],
      "stateMutability": "view",
      "type": "function"
    },
    {
      "inputs": [
        {
          "internalType": "address",
          "name": "owner",
          "type": "address"
        },
        {
          "internalType": "address",
          "name": "spender",
          "type": "address"
        },
        {
          "internalType": "uint256",
          "name": "value",
          "type": "uint256"
        },
        {
          "internalType": "uint256",
          "name": "deadline",
          "type": "uint256"
        },
        {
          "internalType": "uint8",
          "name": "v",
          "type": "uint8"
        },
        {
          "internalType": "bytes32",
          "name": "r",
          "type": "bytes32"
        },
        {
          "internalType": "bytes32",
          "name": "s",
          "type": "bytes32"
        }
      ],
      "name": "permit",
      "outputs": [],
      "stateMutability": "nonpayable",
      "type": "function"
    },
    {
      "inputs": [
        {
          "internalType": "uint256",
          "name": "assets",
          "type": "uint256"
        }
      ],
      "name": "previewDeposit",
      "outputs": [
        {
          "internalType": "uint256",
          "name": "",
          "type": "uint256"
        }
      ],
      "stateMutability": "view",
      "type": "function"
    },
    {
      "inputs": [
        {
          "internalType": "uint256",
          "name": "shares",
          "type": "uint256"
        }
      ],
      "name": "previewMint",
      "outputs": [
        {
          "internalType": "uint256",
          "name": "",
          "type": "uint256"
        }
      ],
      "stateMutability": "view",
      "type": "function"
    },
    {
      "inputs": [
        {
          "internalType": "uint256",
          "name": "shares",
          "type": "uint256"
        }
      ],
      "name": "previewRedeem",
      "outputs": [
        {
          "internalType": "uint256",
          "name": "",
          "type": "uint256"
        }
      ],
      "stateMutability": "view",
      "type": "function"
    },
    {
      "inputs": [
        {
          "internalType": "uint256",
          "name": "assets",
          "type": "uint256"
        }
      ],
      "name": "previewWithdraw",
      "outputs": [
        {
          "internalType": "uint256",
          "name": "",
          "type": "uint256"
        }
      ],
      "stateMutability": "view",
      "type": "function"
    },
    {
      "inputs": [],
      "name": "pricePerShare",
      "outputs": [
        {
          "internalType": "uint256",
          "name": "",
          "type": "uint256"
        }
      ],
      "stateMutability": "view",
      "type": "function"
    },
    {
      "inputs": [],
      "name": "proxiableUUID",
      "outputs": [
        {
          "internalType": "bytes32",
          "name": "",
          "type": "bytes32"
        }
      ],
      "stateMutability": "view",
      "type": "function"
    },
    {
      "inputs": [
        {
          "internalType": "uint256",
          "name": "shares_",
          "type": "uint256"
        },
        {
          "internalType": "address",
          "name": "receiver_",
          "type": "address"
        },
        {
          "internalType": "address",
          "name": "owner_",
          "type": "address"
        }
      ],
      "name": "redeem",
      "outputs": [
        {
          "internalType": "uint256",
          "name": "",
          "type": "uint256"
        }
      ],
      "stateMutability": "nonpayable",
      "type": "function"
    },
    {
      "inputs": [
        {
          "internalType": "address",
          "name": "keeperAddress_",
          "type": "address"
        }
      ],
      "name": "removeKeeper",
      "outputs": [],
      "stateMutability": "nonpayable",
      "type": "function"
    },
    {
      "inputs": [
        {
          "internalType": "address",
          "name": "maintainerAddress_",
          "type": "address"
        }
      ],
      "name": "removeMaintainer",
      "outputs": [],
      "stateMutability": "nonpayable",
      "type": "function"
    },
    {
      "inputs": [
        {
          "internalType": "address",
          "name": "strategy_",
          "type": "address"
        }
      ],
      "name": "removeStrategy",
      "outputs": [],
      "stateMutability": "nonpayable",
      "type": "function"
    },
    {
      "inputs": [],
      "name": "renounceOwnership",
      "outputs": [],
      "stateMutability": "nonpayable",
      "type": "function"
    },
    {
      "inputs": [
        {
          "internalType": "uint256",
          "name": "profit_",
          "type": "uint256"
        },
        {
          "internalType": "uint256",
          "name": "loss_",
          "type": "uint256"
        },
        {
          "internalType": "uint256",
          "name": "payback_",
          "type": "uint256"
        }
      ],
      "name": "reportEarning",
      "outputs": [],
      "stateMutability": "nonpayable",
      "type": "function"
    },
    {
      "inputs": [
        {
          "internalType": "uint256",
          "name": "loss_",
          "type": "uint256"
        }
      ],
      "name": "reportLoss",
      "outputs": [],
      "stateMutability": "nonpayable",
      "type": "function"
    },
    {
      "inputs": [],
      "name": "restart",
      "outputs": [],
      "stateMutability": "nonpayable",
      "type": "function"
    },
    {
      "inputs": [],
      "name": "shutdown",
      "outputs": [],
      "stateMutability": "nonpayable",
      "type": "function"
    },
    {
      "inputs": [
        {
          "internalType": "address",
          "name": "fromToken_",
          "type": "address"
        },
        {
          "internalType": "address",
          "name": "to_",
          "type": "address"
        }
      ],
      "name": "sweep",
      "outputs": [],
      "stateMutability": "nonpayable",
      "type": "function"
    },
    {
      "inputs": [],
      "name": "symbol",
      "outputs": [
        {
          "internalType": "string",
          "name": "",
          "type": "string"
        }
      ],
      "stateMutability": "view",
      "type": "function"
    },
    {
      "inputs": [],
      "name": "token",
      "outputs": [
        {
          "internalType": "address",
          "name": "",
          "type": "address"
        }
      ],
      "stateMutability": "view",
      "type": "function"
    },
    {
      "inputs": [],
      "name": "totalAssets",
      "outputs": [
        {
          "internalType": "uint256",
          "name": "",
          "type": "uint256"
        }
      ],
      "stateMutability": "view",
      "type": "function"
    },
    {
      "inputs": [],
      "name": "totalDebt",
      "outputs": [
        {
          "internalType": "uint256",
          "name": "",
          "type": "uint256"
        }
      ],
      "stateMutability": "view",
      "type": "function"
    },
    {
      "inputs": [
        {
          "internalType": "address",
          "name": "strategy_",
          "type": "address"
        }
      ],
      "name": "totalDebtOf",
      "outputs": [
        {
          "internalType": "uint256",
          "name": "",
          "type": "uint256"
        }
      ],
      "stateMutability": "view",
      "type": "function"
    },
    {
      "inputs": [],
      "name": "totalDebtRatio",
      "outputs": [
        {
          "internalType": "uint256",
          "name": "",
          "type": "uint256"
        }
      ],
      "stateMutability": "view",
      "type": "function"
    },
    {
      "inputs": [],
      "name": "totalSupply",
      "outputs": [
        {
          "internalType": "uint256",
          "name": "",
          "type": "uint256"
        }
      ],
      "stateMutability": "view",
      "type": "function"
    },
    {
      "inputs": [
        {
          "internalType": "address",
          "name": "to",
          "type": "address"
        },
        {
          "internalType": "uint256",
          "name": "value",
          "type": "uint256"
        }
      ],
      "name": "transfer",
      "outputs": [
        {
          "internalType": "bool",
          "name": "",
          "type": "bool"
        }
      ],
      "stateMutability": "nonpayable",
      "type": "function"
    },
    {
      "inputs": [
        {
          "internalType": "address",
          "name": "from",
          "type": "address"
        },
        {
          "internalType": "address",
          "name": "to",
          "type": "address"
        },
        {
          "internalType": "uint256",
          "name": "value",
          "type": "uint256"
        }
      ],
      "name": "transferFrom",
      "outputs": [
        {
          "internalType": "bool",
          "name": "",
          "type": "bool"
        }
      ],
      "stateMutability": "nonpayable",
      "type": "function"
    },
    {
      "inputs": [
        {
          "internalType": "address",
          "name": "newOwner",
          "type": "address"
        }
      ],
      "name": "transferOwnership",
      "outputs": [],
      "stateMutability": "nonpayable",
      "type": "function"
    },
    {
      "inputs": [],
      "name": "universalFee",
      "outputs": [
        {
          "internalType": "uint256",
          "name": "",
          "type": "uint256"
        }
      ],
      "stateMutability": "view",
      "type": "function"
    },
    {
      "inputs": [],
      "name": "unpause",
      "outputs": [],
      "stateMutability": "nonpayable",
      "type": "function"
    },
    {
      "inputs": [
        {
          "internalType": "address",
          "name": "strategy_",
          "type": "address"
        },
        {
          "internalType": "uint256",
          "name": "debtRatio_",
          "type": "uint256"
        }
      ],
      "name": "updateDebtRatio",
      "outputs": [],
      "stateMutability": "nonpayable",
      "type": "function"
    },
    {
      "inputs": [
        {
          "internalType": "uint256",
          "name": "newMaxProfitAsFee_",
          "type": "uint256"
        }
      ],
      "name": "updateMaximumProfitAsFee",
      "outputs": [],
      "stateMutability": "nonpayable",
      "type": "function"
    },
    {
      "inputs": [
        {
          "internalType": "uint256",
          "name": "newLimit_",
          "type": "uint256"
        }
      ],
      "name": "updateMinimumDepositLimit",
      "outputs": [],
      "stateMutability": "nonpayable",
      "type": "function"
    },
    {
      "inputs": [
        {
          "internalType": "uint256",
          "name": "newUniversalFee_",
          "type": "uint256"
        }
      ],
      "name": "updateUniversalFee",
      "outputs": [],
      "stateMutability": "nonpayable",
      "type": "function"
    },
    {
      "inputs": [
        {
          "internalType": "address",
          "name": "newVaultRewards_",
          "type": "address"
        }
      ],
      "name": "updateVaultRewards",
      "outputs": [],
      "stateMutability": "nonpayable",
      "type": "function"
    },
    {
      "inputs": [
        {
          "internalType": "address[]",
          "name": "withdrawQueue_",
          "type": "address[]"
        }
      ],
      "name": "updateWithdrawQueue",
      "outputs": [],
      "stateMutability": "nonpayable",
      "type": "function"
    },
    {
      "inputs": [
        {
          "internalType": "address",
          "name": "newImplementation",
          "type": "address"
        },
        {
          "internalType": "bytes",
          "name": "data",
          "type": "bytes"
        }
      ],
      "name": "upgradeToAndCall",
      "outputs": [],
      "stateMutability": "payable",
      "type": "function"
    },
    {
      "inputs": [],
      "name": "vaultAccountant",
      "outputs": [
        {
          "internalType": "address",
          "name": "",
          "type": "address"
        }
      ],
      "stateMutability": "pure",
      "type": "function"
    },
    {
      "inputs": [],
      "name": "vaultRewards",
      "outputs": [
        {
          "internalType": "address",
          "name": "",
          "type": "address"
        }
      ],
      "stateMutability": "view",
      "type": "function"
    },
    {
      "inputs": [],
      "name": "version",
      "outputs": [
        {
          "internalType": "string",
          "name": "",
          "type": "string"
        }
      ],
      "stateMutability": "pure",
      "type": "function"
    },
    {
      "inputs": [
        {
          "internalType": "uint256",
          "name": "assets_",
          "type": "uint256"
        },
        {
          "internalType": "address",
          "name": "receiver_",
          "type": "address"
        },
        {
          "internalType": "address",
          "name": "owner_",
          "type": "address"
        }
      ],
      "name": "withdraw",
      "outputs": [
        {
          "internalType": "uint256",
          "name": "",
          "type": "uint256"
        }
      ],
      "stateMutability": "nonpayable",
      "type": "function"
    }
  ],
  "transactionHash": "0xc55f8248ac4cfcf46c0640f3edfb9ff9a7c48367e36312bed24a3556f15c947f",
  "args": [],
  "numDeployments": 1,
  "solcInputHash": "ae32d0d2a26f9a8ca02dcc1b5137decf",
  "bytecode": "0x60a06040523060805234801561001457600080fd5b5061001d610022565b6100d4565b7ff0c57e16840df040f15088dc2f81fe391c3923bec73e23a9662efc9c229c6a00805468010000000000000000900460ff16156100725760405163f92ee8a960e01b815260040160405180910390fd5b80546001600160401b03908116146100d15780546001600160401b0319166001600160401b0390811782556040519081527fc7f505b2f371ae2175ee4913f4499e1f2633a7b5936321eed1cdaeb6115181d29060200160405180910390a15b50565b608051615a496100fd600039600081816135c9015281816135f201526136720152615a496000f3fe6080604052600436106104685760003560e01c80638456cb591161024a578063b8dc491b11610139578063d905777e116100b6578063ef8b30f71161007a578063ef8b30f714610c68578063f2fde38b14610e02578063fc0c546a14610e22578063fc0e74d114610e37578063fc7b9c1814610e4c57600080fd5b8063d905777e14610d28578063dd57366a14610d48578063dd62ed3e14610d68578063ddd6d26014610dcd578063e30c397814610ded57600080fd5b8063c9411e22116100fd578063c9411e2214610c88578063ce96cb7714610ca8578063d505accf14610cc8578063d53ddc2614610ce8578063d8baf7cf14610d0857600080fd5b8063b8dc491b14610c13578063ba08765214610c33578063bf86d69014610c53578063c63d75b614610773578063c6e6f59214610c6857600080fd5b806395d89b41116101c7578063a9059cbb1161018b578063a9059cbb14610b6d578063ad3cb1cc14610b8d578063b3d7f6b914610bbe578063b460af9414610bde578063b49a60bb14610bfe57600080fd5b806395d89b4114610a6f57806399530b0614610a845780639b6da8df14610a995780639f2b283314610ab9578063a14889fe14610aff57600080fd5b80638f15b4141161020e5780638f15b414146109da5780638f88d18c146109fa5780638fa2d22814610a1a57806394bf804d14610a3a578063951dc22c14610a5a57600080fd5b80638456cb591461094857806384b0196e1461095d578063854f4d80146109855780638d3d0a26146109a55780638da5cb5b146109c557600080fd5b806338d52e0f116103665780635c975abb116102e357806370a08231116102a757806370a08231146108c9578063715018a6146108e957806379ba5097146108fe5780637ecebe00146109135780638429d51f1461093357600080fd5b80635c975abb146108205780635f895e54146108355780636b453c1f146108695780636ba42aaa146108895780636e553f65146108a957600080fd5b806349eeb8601161032a57806349eeb860146107b55780634cdad506146104d95780634f1ef286146107ca57806352d1902d146107dd57806354fd4d50146107f257600080fd5b806338d52e0f146107155780633e7729251461072a5780633f4ba83a1461075e578063402d267d146107735780634032b72b1461079557600080fd5b806311183052116103f45780631ef3755d116103b85780631ef3755d1461067057806323b872dd146106855780632df9eab9146106a5578063313ce567146106d95780633644e5151461070057600080fd5b806311183052146105a657806314ae9f2e146105c857806315078f09146105e8578063175188e81461061c57806318160ddd1461063c57600080fd5b806308f5d1b01161043b57806308f5d1b0146104f9578063095ea7b3146105215780630a28a477146105515780630c340a24146105715780630da3fe201461058657600080fd5b806301e1d1141461046d57806305bed0461461049557806306fdde03146104b757806307a2d13a146104d9575b600080fd5b34801561047957600080fd5b50610482610e80565b6040519081526020015b60405180910390f35b3480156104a157600080fd5b506104b56104b0366004615049565b610eae565b005b3480156104c357600080fd5b506104cc6112be565b60405161048c91906150c5565b3480156104e557600080fd5b506104826104f43660046150d8565b611379565b34801561050557600080fd5b5060005b6040516001600160a01b03909116815260200161048c565b34801561052d57600080fd5b5061054161053c366004615106565b61138c565b604051901515815260200161048c565b34801561055d57600080fd5b5061048261056c3660046150d8565b6113a4565b34801561057d57600080fd5b506105096113b1565b34801561059257600080fd5b506104b56105a13660046150d8565b6113c0565b3480156105b257600080fd5b506105bb61145a565b60405161048c9190615132565b3480156105d457600080fd5b506104b56105e336600461517e565b6114cc565b3480156105f457600080fd5b507fbaeaf235c9c9807c1f4a2c352810dd4cb4b0d3d0f2cf0b692f9279e99df38e0754610482565b34801561062857600080fd5b506104b561063736600461517e565b611563565b34801561064857600080fd5b507f52c63247e1f47db19d5ce0460030c497f067ca4cebf71ba98eeadabe20bace0254610482565b34801561067c57600080fd5b506104b561183e565b34801561069157600080fd5b506105416106a036600461519b565b611895565b3480156106b157600080fd5b507fbaeaf235c9c9807c1f4a2c352810dd4cb4b0d3d0f2cf0b692f9279e99df38e0954610482565b3480156106e557600080fd5b506106ee6118bb565b60405160ff909116815260200161048c565b34801561070c57600080fd5b506104826118c5565b34801561072157600080fd5b506105096118cf565b34801561073657600080fd5b507fbaeaf235c9c9807c1f4a2c352810dd4cb4b0d3d0f2cf0b692f9279e99df38e0654610482565b34801561076a57600080fd5b506104b5611904565b34801561077f57600080fd5b5061048261078e36600461517e565b5060001990565b3480156107a157600080fd5b506104b56107b036600461517e565b611959565b3480156107c157600080fd5b506105bb6119ed565b6104b56107d836600461527f565b611a18565b3480156107e957600080fd5b50610482611a92565b3480156107fe57600080fd5b506040805180820190915260058152640362e302e360dc1b60208201526104cc565b34801561082c57600080fd5b50610541611ac1565b34801561084157600080fd5b507fbaeaf235c9c9807c1f4a2c352810dd4cb4b0d3d0f2cf0b692f9279e99df38e0554610482565b34801561087557600080fd5b506104b561088436600461517e565b611ad9565b34801561089557600080fd5b506105416108a436600461517e565b611b50565b3480156108b557600080fd5b506104826108c43660046152e3565b611b7c565b3480156108d557600080fd5b506104826108e436600461517e565b611bd2565b3480156108f557600080fd5b506104b5611c17565b34801561090a57600080fd5b506104b5611c29565b34801561091f57600080fd5b5061048261092e36600461517e565b611c6e565b34801561093f57600080fd5b50610509611c79565b34801561095457600080fd5b506104b5611c9a565b34801561096957600080fd5b50610972611cef565b60405161048c9796959493929190615313565b34801561099157600080fd5b506104b56109a03660046153ab565b611db5565b3480156109b157600080fd5b506104b56109c03660046150d8565b611f22565b3480156109d157600080fd5b50610509611fbe565b3480156109e657600080fd5b506104b56109f5366004615484565b611fe7565b348015610a0657600080fd5b506104b5610a15366004615106565b61222e565b348015610a2657600080fd5b506104b5610a3536600461517e565b61236f565b348015610a4657600080fd5b50610482610a553660046152e3565b612406565b348015610a6657600080fd5b506105bb612472565b348015610a7b57600080fd5b506104cc61249d565b348015610a9057600080fd5b506104826124ee565b348015610aa557600080fd5b506104b5610ab43660046150d8565b612501565b348015610ac557600080fd5b50610482610ad436600461517e565b6001600160a01b031660009081526000805160206159f4833981519152602052604090206002015490565b348015610b0b57600080fd5b50610b1f610b1a36600461517e565b61259d565b60405161048c9190600060c0820190508251151582526020830151602083015260408301516040830152606083015160608301526080830151608083015260a083015160a083015292915050565b348015610b7957600080fd5b50610541610b88366004615106565b61264c565b348015610b9957600080fd5b506104cc604051806040016040528060058152602001640352e302e360dc1b81525081565b348015610bca57600080fd5b50610482610bd93660046150d8565b61265a565b348015610bea57600080fd5b50610482610bf9366004615512565b612667565b348015610c0a57600080fd5b506105bb61267d565b348015610c1f57600080fd5b506104b5610c2e366004615554565b6126a8565b348015610c3f57600080fd5b50610482610c4e366004615512565b612793565b348015610c5f57600080fd5b506105416127d2565b348015610c7457600080fd5b50610482610c833660046150d8565b612801565b348015610c9457600080fd5b506104b5610ca3366004615106565b61280e565b348015610cb457600080fd5b50610482610cc336600461517e565b6129ca565b348015610cd457600080fd5b506104b5610ce3366004615591565b6129df565b348015610cf457600080fd5b50610482610d0336600461517e565b612b38565b348015610d1457600080fd5b506104b5610d2336600461517e565b612baf565b348015610d3457600080fd5b50610482610d4336600461517e565b612c26565b348015610d5457600080fd5b50610541610d6336600461517e565b612c31565b348015610d7457600080fd5b50610482610d83366004615554565b6001600160a01b0391821660009081527f52c63247e1f47db19d5ce0460030c497f067ca4cebf71ba98eeadabe20bace016020908152604080832093909416825291909152205490565b348015610dd957600080fd5b506104b5610de83660046150d8565b612c5d565b348015610df957600080fd5b50610509612cf4565b348015610e0e57600080fd5b506104b5610e1d36600461517e565b612d1d565b348015610e2e57600080fd5b50610509612da2565b348015610e4357600080fd5b506104b5612dac565b348015610e5857600080fd5b507fbaeaf235c9c9807c1f4a2c352810dd4cb4b0d3d0f2cf0b692f9279e99df38e0a54610482565b60006000805160206159d4833981519152610e99612e01565b81600a0154610ea89190615618565b91505090565b3360008181526000805160206159f48339815191526020526040902080546000805160206159d483398151915292919060ff16610efe5760405163432aa98d60e11b815260040160405180910390fd5b610f088487615618565b610f106118cf565b6040516370a0823160e01b81526001600160a01b03858116600483015291909116906370a0823190602401602060405180830381865afa158015610f58573d6000803e3d6000fd5b505050506040513d601f19601f82011682018060405250810190610f7c919061562b565b1015610f9b57604051631e9acf1760e31b815260040160405180910390fd5b851561108b5785816004016000828254610fb59190615618565b9091555060009050610fc8848489612e75565b9050801561108957611043836001600160a01b031663c415b95c6040518163ffffffff1660e01b8152600401602060405180830381865afa158015611011573d6000803e3d6000fd5b505050506040513d601f19601f820116820180604052508101906110359190615644565b61103e83612801565b612f57565b6002820154604080519182526020820189905281018290527f692ef79cc704efab4328e6c217b5fb3b1045d0a0314e3e8137029bcb2d59ce4a9060600160405180910390a15b505b841561109c5761109c838387612f8d565b6040805160c081018252825460ff1615158152600183015460208201526002830154918101919091526003820154606082015260048201546080820152600582015460a08201526000906110f9906110f390613086565b866130e1565b9050801561113657808260020160008282546111159190615661565b925050819055508084600a0160008282546111309190615661565b90915550505b6040805160c081018252835460ff1615158152600184015460208201526002840154918101919091526003830154606082015260048301546080820152600583015460a08201526009850154600a8601546000926111959290916130f1565b905080156111d257808360020160008282546111b19190615618565b925050819055508085600a0160008282546111cc9190615618565b90915550505b42600184015560006111e4838a615618565b90508181101561121957611214856111fc8385615661565b6112046118cf565b6001600160a01b031691906131bb565b611249565b818111156112495761124985306112308585615661565b6112386118cf565b6001600160a01b031692919061321f565b6002840154600a870154604080518c8152602081018c90529081018690526060810192909252608082015260a081018390526001600160a01b038616907f29c6c60e040fcd722949346bda66341e8859b20b9a2124a625326ad10373391b9060c00160405180910390a2505050505050505050565b606060007f52c63247e1f47db19d5ce0460030c497f067ca4cebf71ba98eeadabe20bace005b90508060030180546112f590615674565b80601f016020809104026020016040519081016040528092919081815260200182805461132190615674565b801561136e5780601f106113435761010080835404028352916020019161136e565b820191906000526020600020905b81548152906001019060200180831161135157829003601f168201915b505050505091505090565b6000611386826000613258565b92915050565b60003361139a8185856132d5565b5060019392505050565b60006113868260016132e2565b60006113bb611fbe565b905090565b6113c861335c565b806000036113e957604051630fa6cf5760e01b815260040160405180910390fd5b7fbaeaf235c9c9807c1f4a2c352810dd4cb4b0d3d0f2cf0b692f9279e99df38e0754604080519182526020820183905280516000805160206159d4833981519152927f25c9f41f0fb7a055d44b070262516fbd0111daea3b55d40fae1983827dc9929292908290030190a160070155565b60606000805160206159d4833981519152600d018054806020026020016040519081016040528092919081815260200182805480156114c257602002820191906000526020600020905b81546001600160a01b031681526001909101906020018083116114a4575b5050505050905090565b6114d4611fbe565b6001600160a01b0316336001600160a01b0316141580156114fb57506114f933611b50565b155b15611519576040516335e34b0760e21b815260040160405180910390fd5b6115437fbaeaf235c9c9807c1f4a2c352810dd4cb4b0d3d0f2cf0b692f9279e99df38e018261338e565b6115605760405163c24bedff60e01b815260040160405180910390fd5b50565b61156b61335c565b6001600160a01b03811660009081526000805160206159f48339815191526020908152604091829020825160c081018452815460ff16151580825260018301549382019390935260028201549381019390935260038101546060840152600481015460808401526005015460a08301526000805160206159d483398151915291906116095760405163432aa98d60e11b815260040160405180910390fd5b60408101511561162c57604051631d045d9160e21b815260040160405180910390fd5b8060a001518260090160008282546116449190615661565b90915550506001600160a01b0383166000908152600e830160205260408120805460ff191681556001810182905560028101829055600381018290556004810182905560050155611698600b83018461338e565b5060006116a783600b016133a3565b67ffffffffffffffff8111156116bf576116bf6151dc565b6040519080825280602002602001820160405280156116e8578160200160208202803683370190505b509050600083600d0180548060200260200160405190810160405280929190818152602001828054801561174557602002820191906000526020600020905b81546001600160a01b03168152600190910190602001808311611727575b505050505090506000815190506000805b828110156117ea57876001600160a01b031684828151811061177a5761177a6156ae565b60200260200101516001600160a01b0316146117e2578381815181106117a2576117a26156ae565b60200260200101518583815181106117bc576117bc6156ae565b6001600160a01b0390921660209283029190910190910152816117de816156c4565b9250505b600101611756565b50835161180090600d8801906020870190614fcf565b506040516001600160a01b038816907f09a1db4b80c32706328728508c941a6b954f31eb5affd32f236c1fd405f8fea490600090a250505050505050565b611846611fbe565b6001600160a01b0316336001600160a01b03161415801561186d575061186b33611b50565b155b1561188b576040516335e34b0760e21b815260040160405180910390fd5b6118936133ad565b565b6000336118a385828561341f565b6118ae8585856134b7565b60019150505b9392505050565b60006113bb613516565b60006113bb61357a565b6000807f0773e532dfede91f04b12a73d3d2acd361424f41f76b4fb79f090161e36b4e005b546001600160a01b031692915050565b61190c611fbe565b6001600160a01b0316336001600160a01b031614158015611933575061193133611b50565b155b15611951576040516335e34b0760e21b815260040160405180910390fd5b611893613584565b611961611fbe565b6001600160a01b0316336001600160a01b031614158015611988575061198633611b50565b155b156119a6576040516335e34b0760e21b815260040160405180910390fd5b6119d07fbaeaf235c9c9807c1f4a2c352810dd4cb4b0d3d0f2cf0b692f9279e99df38e018261359c565b6115605760405163838ce55f60e01b815260040160405180910390fd5b60606113bb7fbaeaf235c9c9807c1f4a2c352810dd4cb4b0d3d0f2cf0b692f9279e99df38e036135b1565b611a206135be565b6000611a2a611fbe565b9050611a36838361364c565b6000611a40611fbe565b9050816001600160a01b0316816001600160a01b031614611a8c57604051632767cb4760e11b81526001600160a01b038083166004830152831660248201526044015b60405180910390fd5b50505050565b6000611a9c613667565b507f360894a13ba1a3210667c828492db98dca3e2076cc3735a920a3ca505d382bbc90565b6000611acb6136b0565b806113bb57506113bb6127d2565b611ae1611fbe565b6001600160a01b0316336001600160a01b031614158015611b085750611b0633611b50565b155b15611b26576040516335e34b0760e21b815260040160405180910390fd5b6119d07fbaeaf235c9c9807c1f4a2c352810dd4cb4b0d3d0f2cf0b692f9279e99df38e038261359c565b60006113867fbaeaf235c9c9807c1f4a2c352810dd4cb4b0d3d0f2cf0b692f9279e99df38e01836136d9565b6000611b866136fb565b7fbaeaf235c9c9807c1f4a2c352810dd4cb4b0d3d0f2cf0b692f9279e99df38e0754831015611bc85760405163154e369160e01b815260040160405180910390fd5b6118b48383613721565b6000807f52c63247e1f47db19d5ce0460030c497f067ca4cebf71ba98eeadabe20bace005b6001600160a01b0390931660009081526020939093525050604090205490565b611c1f61335c565b611893600061373f565b3380611c33612cf4565b6001600160a01b031614611c655760405163118cdaa760e01b81526001600160a01b0382166004820152602401611a83565b6115608161373f565b600061138682613777565b60006000805160206159d48339815191525b546001600160a01b0316919050565b611ca2611fbe565b6001600160a01b0316336001600160a01b031614158015611cc95750611cc733611b50565b155b15611ce7576040516335e34b0760e21b815260040160405180910390fd5b6118936137a0565b600060608082808083817fa16a46d94261c7517cc8ff89f61c0ce93598e3c849801011dee649a6a557d1008054909150158015611d2e57506001810154155b611d7a5760405162461bcd60e51b815260206004820152601560248201527f4549503731323a20556e696e697469616c697a656400000000000000000000006044820152606401611a83565b611d826137fb565b611d8a61384c565b60408051600080825260208201909252600f60f81b9c939b5091995046985030975095509350915050565b611dbd611fbe565b6001600160a01b0316336001600160a01b031614158015611de45750611de233612c31565b155b15611e025760405163b901995160e01b815260040160405180910390fd5b80517fbaeaf235c9c9807c1f4a2c352810dd4cb4b0d3d0f2cf0b692f9279e99df38e0d546000805160206159d4833981519152919081141580611e505750611e4c82600b016133a3565b8114155b15611e6e5760405163512509d360e11b815260040160405180910390fd5b60005b81811015611edd5782600e016000858381518110611e9157611e916156ae565b6020908102919091018101516001600160a01b031682528101919091526040016000205460ff16611ed55760405163432aa98d60e11b815260040160405180910390fd5b600101611e71565b508251611ef390600d8401906020860190614fcf565b506040517f6dcbeb6cf4c67264b402ac0d300a75b0ac470ae98be83f61bc921e26465e1c4790600090a1505050565b611f2a61335c565b612710811115611f4d57604051631c2e49c160e31b815260040160405180910390fd5b7fbaeaf235c9c9807c1f4a2c352810dd4cb4b0d3d0f2cf0b692f9279e99df38e0554604080519182526020820183905280516000805160206159d4833981519152927f905d672396c48f9d1e13c57aec0819f00d39364ab4bf40a46a687aa607b67d8192908290030190a160050155565b6000807f9016d09d72d40fdae2fd8ceac6b6234c7706214fd39c1cd1e609a0528c1993006118f4565b6000611ff1613876565b805490915060ff68010000000000000000820416159067ffffffffffffffff1660008115801561201e5750825b905060008267ffffffffffffffff16600114801561203b5750303b155b905081158015612049575080155b156120675760405163f92ee8a960e01b815260040160405180910390fd5b845467ffffffffffffffff19166001178555831561209b57845468ff00000000000000001916680100000000000000001785555b6001600160a01b0387166120c25760405163fb7566d760e01b815260040160405180910390fd5b6120cc898961389f565b6120d5876138b1565b6120de896138c2565b6120e7866138ed565b6120ef6138fe565b6000805160206159d48339815191526121287fbaeaf235c9c9807c1f4a2c352810dd4cb4b0d3d0f2cf0b692f9279e99df38e018861359c565b50612136600382018861359c565b5060c860058201556113886006820155600160078201556040805163313ce56760e01b815290516001600160a01b038a169163313ce5679160048083019260209291908290030181865afa158015612192573d6000803e3d6000fd5b505050506040513d601f19601f820116820180604052508101906121b691906156dd565b6121c19060126156fa565b600891909101805460ff191660ff909216919091179055831561222357845468ff000000000000000019168555604051600181527fc7f505b2f371ae2175ee4913f4499e1f2633a7b5936321eed1cdaeb6115181d29060200160405180910390a15b505050505050505050565b612236611fbe565b6001600160a01b0316336001600160a01b03161415801561225d575061225b33612c31565b155b1561227b5760405163b901995160e01b815260040160405180910390fd5b6001600160a01b03821660009081526000805160206159f48339815191526020526040902080546000805160206159d4833981519152919060ff166122d35760405163432aa98d60e11b815260040160405180910390fd5b82816005015483600901546122e89190615661565b6122f29190615618565b60098301819055612710101561231b576040516379facb0d60e01b815260040160405180910390fd5b600581015460408051918252602082018590526001600160a01b038616917fab9990442b7ef5dfed05018d2d947ceb38710eda84b3e3b32940cbb28867ee0e910160405180910390a2600501919091555050565b61237761335c565b6001600160a01b03811661239e5760405163fb7566d760e01b815260040160405180910390fd5b6000805160206159d483398151915280546040516001600160a01b038481169216907f2fb189e00e544df8fd2887e7851fb5f8fc26865a2cf94a97de02bd393198d78590600090a380546001600160a01b0319166001600160a01b0392909216919091179055565b60006124106136fb565b600061241b8461265a565b7fbaeaf235c9c9807c1f4a2c352810dd4cb4b0d3d0f2cf0b692f9279e99df38e07549091508110156124605760405163154e369160e01b815260040160405180910390fd5b61246a848461390e565b949350505050565b60606113bb7fbaeaf235c9c9807c1f4a2c352810dd4cb4b0d3d0f2cf0b692f9279e99df38e016135b1565b7f52c63247e1f47db19d5ce0460030c497f067ca4cebf71ba98eeadabe20bace0480546060917f52c63247e1f47db19d5ce0460030c497f067ca4cebf71ba98eeadabe20bace00916112f590615674565b60006113bb670de0b6b3a7640000611379565b61250961335c565b61271081111561252c57604051631c2e49c160e31b815260040160405180910390fd5b7fbaeaf235c9c9807c1f4a2c352810dd4cb4b0d3d0f2cf0b692f9279e99df38e0654604080519182526020820183905280516000805160206159d4833981519152927fafe4d3ceb3295a8d4ef49288a92d32d94e39396e823d414b81caff61b9fc399092908290030190a160060155565b6125d86040518060c0016040528060001515815260200160008152602001600081526020016000815260200160008152602001600081525090565b506001600160a01b031660009081526000805160206159f48339815191526020908152604091829020825160c081018452815460ff1615158152600182015492810192909252600281015492820192909252600382015460608201526004820154608082015260059091015460a082015290565b60003361139a8185856134b7565b6000611386826001613258565b60006126728461392c565b61246a8484846139ab565b60606113bb7fbaeaf235c9c9807c1f4a2c352810dd4cb4b0d3d0f2cf0b692f9279e99df38e0b6135b1565b6126b061335c565b6001600160a01b0381166126d75760405163fb7566d760e01b815260040160405180910390fd5b6126df6118cf565b6001600160a01b0316826001600160a01b0316036127105760405163fc93eec760e01b815260040160405180910390fd5b6040516370a0823160e01b815230600482015261278f9082906001600160a01b038516906370a0823190602401602060405180830381865afa15801561275a573d6000803e3d6000fd5b505050506040513d601f19601f8201168201806040525081019061277e919061562b565b6001600160a01b03851691906131bb565b5050565b6000836000036127b657604051639811e0c760e01b815260040160405180910390fd5b6127c76127c285611379565b61392c565b61246a848484613a16565b6000807f019a888e50c7391e6e8fcd7763e66682aa228549857b7d24cf4bc363dd4e71005b5460ff1692915050565b60006113868260006132e2565b61281661335c565b6001600160a01b03821661283d5760405163fb7566d760e01b815260040160405180910390fd5b6001600160a01b03821660009081526000805160206159f483398151915260205260409020546000805160206159d48339815191529060ff161561289457604051631064d8bd60e11b815260040160405180910390fd5b8181600901546128a49190615618565b6009820181905561271010156128cd576040516379facb0d60e01b815260040160405180910390fd5b6040805160c08101825260018082524260208084019182526000848601818152606086018281526080870183815260a088018b81526001600160a01b038d168552600e8b01909552979092208651815460ff19169015151781559351948401949094559251600283015591516003820155925160048401555160059092019190915561295c600b83018561359c565b50600d8201805460018101825560009182526020918290200180546001600160a01b0319166001600160a01b03871690811790915560405185815290917f2f564a83158ad1831793ad3e69257b52f39ece5d49cb0d8746708ecb9ef964da910160405180910390a250505050565b60006113866129d883611bd2565b6000613258565b83421115612a035760405163313c898160e11b815260048101859052602401611a83565b60007f6e71edae12b1b97f4d1f60370fef10105fa2faae0126114a169c64845d6126c9888888612a6f8c6001600160a01b031660009081527f5ab42ced628888259c08ac98db1eb0cf702fc1501344311d8b100cd1bfe4bb006020526040902080546001810190915590565b6040805160208101969096526001600160a01b0394851690860152929091166060840152608083015260a082015260c0810186905260e0016040516020818303038152906040528051906020012090506000612aca82613a78565b90506000612ada82878787613aa5565b9050896001600160a01b0316816001600160a01b031614612b21576040516325c0072360e11b81526001600160a01b0380831660048301528b166024820152604401611a83565b612b2c8a8a8a6132d5565b50505050505050505050565b6001600160a01b03811660009081526000805160206159f483398151915260209081526040808320815160c081018352815460ff161515815260018201549381019390935260028101549183019190915260038101546060830152600481015460808301526005015460a082015261138690613086565b612bb7611fbe565b6001600160a01b0316336001600160a01b031614158015612bde5750612bdc33611b50565b155b15612bfc576040516335e34b0760e21b815260040160405180910390fd5b6115437fbaeaf235c9c9807c1f4a2c352810dd4cb4b0d3d0f2cf0b692f9279e99df38e038261338e565b600061138682611bd2565b60006113867fbaeaf235c9c9807c1f4a2c352810dd4cb4b0d3d0f2cf0b692f9279e99df38e03836136d9565b8015611560573360009081526000805160206159f483398151915260205260409020546000805160206159d48339815191529060ff16612cb05760405163432aa98d60e11b815260040160405180910390fd5b612cbb813384612f8d565b60405182815233907f3ffa9beb41b46c88b16758ef6c236ebd4d07cdfd4d22471030eb6b2d662482d99060200160405180910390a25050565b6000807f237e158222e3e6968b72b9db0d8043aacf074ad9f650f0d1606b4d82ee432c006118f4565b612d2561335c565b7f237e158222e3e6968b72b9db0d8043aacf074ad9f650f0d1606b4d82ee432c0080546001600160a01b0319166001600160a01b0383169081178255612d69611fbe565b6001600160a01b03167f38d16b8cac22d99fc7c124b9cd0de2d3fa1faef420bfe791d8c362d765e2270060405160405180910390a35050565b60006113bb6118cf565b612db4611fbe565b6001600160a01b0316336001600160a01b031614158015612ddb5750612dd933611b50565b155b15612df9576040516335e34b0760e21b815260040160405180910390fd5b611893613ad3565b6000612e0b6118cf565b6040516370a0823160e01b81523060048201526001600160a01b0391909116906370a0823190602401602060405180830381865afa158015612e51573d6000803e3d6000fd5b505050506040513d601f19601f820116820180604052508101906113bb919061562b565b6001600160a01b0382166000908152600e840160209081526040808320815160c081018352815460ff161515815260018201549381019390935260028101549183019190915260038101546060830152600481015460808301526005015460a0820152612ee86301e187e0612710615713565b60408201516020830151612efc9042615661565b8760050154612f0b9190615713565b612f159190615713565b612f1f9190615740565b91506000612710866006015485612f369190615713565b612f409190615740565b905080831115612f4e578092505b50509392505050565b6001600160a01b038216612f815760405163ec442f0560e01b815260006004820152602401611a83565b61278f60008383613b2e565b6001600160a01b0382166000908152600e8401602052604090206002810154821115612fcc5760405163f385300360e01b815260040160405180910390fd5b81816003016000828254612fe09190615618565b9250508190555081816002016000828254612ffb9190615661565b925050819055508184600a0160008282546130169190615661565b9091555060009050613049613029610e80565b61303561271086615713565b61303f9190615740565b83600501546130e1565b90508082600501600082825461305f9190615661565b925050819055508085600901600082825461307a9190615661565b90915550505050505050565b60408101516000906130966127d2565b156130a15792915050565b60006127106130ae610e80565b8560a001516130bd9190615713565b6130c79190615740565b90508082116130d757600061246a565b61246a8183615661565b60008282188284100282186118b4565b60006130fb6127d2565b15613108575060006118b4565b6000613112610e80565b90506000612710828760a001516131299190615713565b6131339190615740565b604087015190915081811061314e57600093505050506118b4565b600061271061315d8589615713565b6131679190615740565b905080861061317d5760009450505050506118b4565b600061319b61318c8486615661565b6131968985615661565b6130e1565b90506131ae6131a8612e01565b826130e1565b9998505050505050505050565b6040516001600160a01b0383811660248301526044820183905261321a91859182169063a9059cbb906064015b604051602081830303815290604052915060e01b6020820180516001600160e01b038381831617835250505050613c2e565b505050565b6040516001600160a01b038481166024830152838116604483015260648201839052611a8c9186918216906323b872dd906084016131e8565b60006118b4613265610e80565b613270906001615618565b7fbaeaf235c9c9807c1f4a2c352810dd4cb4b0d3d0f2cf0b692f9279e99df38e085460ff166132a090600a61583b565b7f52c63247e1f47db19d5ce0460030c497f067ca4cebf71ba98eeadabe20bace02546132cc9190615618565b85919085613c9f565b61321a8383836001613ce3565b60006118b46133127fbaeaf235c9c9807c1f4a2c352810dd4cb4b0d3d0f2cf0b692f9279e99df38e085460ff1690565b61331d90600a61583b565b7f52c63247e1f47db19d5ce0460030c497f067ca4cebf71ba98eeadabe20bace02546133499190615618565b613351610e80565b6132cc906001615618565b33613365611fbe565b6001600160a01b0316146118935760405163118cdaa760e01b8152336004820152602401611a83565b60006118b4836001600160a01b038416613ddd565b6000611386825490565b6133b5613ed0565b7f019a888e50c7391e6e8fcd7763e66682aa228549857b7d24cf4bc363dd4e7100805460ff191681557f4e0770ba963428d6bdb7fa251bb89b997c88caaf46144bb8297e60a9a75552ef335b6040516001600160a01b03909116815260200160405180910390a150565b6001600160a01b0383811660009081527f52c63247e1f47db19d5ce0460030c497f067ca4cebf71ba98eeadabe20bace016020908152604080832093861683529290522054600019811015611a8c57818110156134a857604051637dc7a0d960e11b81526001600160a01b03841660048201526024810182905260448101839052606401611a83565b611a8c84848484036000613ce3565b6001600160a01b0383166134e157604051634b637e8f60e11b815260006004820152602401611a83565b6001600160a01b03821661350b5760405163ec442f0560e01b815260006004820152602401611a83565b61321a838383613b2e565b60007f0773e532dfede91f04b12a73d3d2acd361424f41f76b4fb79f090161e36b4e006135647fbaeaf235c9c9807c1f4a2c352810dd4cb4b0d3d0f2cf0b692f9279e99df38e085460ff1690565b8154610ea89190600160a01b900460ff1661584a565b60006113bb613ef5565b61358c613f69565b613594613f8f565b611893613fb4565b60006118b4836001600160a01b03841661400c565b606060006118b48361405b565b306001600160a01b037f000000000000000000000000000000000000000000000000000000000000000016148061362e57507f00000000000000000000000000000000000000000000000000000000000000006001600160a01b03166136226140b7565b6001600160a01b031614155b156118935760405163703e46dd60e11b815260040160405180910390fd5b6136546135be565b61365d826140df565b61278f82826140e7565b306001600160a01b037f000000000000000000000000000000000000000000000000000000000000000016146118935760405163703e46dd60e11b815260040160405180910390fd5b6000807fcd5ed15c6e187e77e9aee88184c21f4f2182ab5827cb3b7e07fbedcd63f033006127f7565b6001600160a01b038116600090815260018301602052604081205415156118b4565b613703611ac1565b156118935760405163d93c066560e01b815260040160405180910390fd5b6000600019600061373185612801565b905061246a338587846141b6565b7f237e158222e3e6968b72b9db0d8043aacf074ad9f650f0d1606b4d82ee432c0080546001600160a01b031916815561278f8261422f565b6000807f5ab42ced628888259c08ac98db1eb0cf702fc1501344311d8b100cd1bfe4bb00611bf7565b6137a86136fb565b7fcd5ed15c6e187e77e9aee88184c21f4f2182ab5827cb3b7e07fbedcd63f03300805460ff191660011781557f62e78cea01bee320cd4e420270b5ea74000d11b0c9f74754ebdbfc544b05a25833613401565b7fa16a46d94261c7517cc8ff89f61c0ce93598e3c849801011dee649a6a557d10280546060917fa16a46d94261c7517cc8ff89f61c0ce93598e3c849801011dee649a6a557d100916112f590615674565b606060007fa16a46d94261c7517cc8ff89f61c0ce93598e3c849801011dee649a6a557d1006112e4565b6000807ff0c57e16840df040f15088dc2f81fe391c3923bec73e23a9662efc9c229c6a00611386565b6138a76142a0565b61278f82826142c5565b6138b96142a0565b61156081614328565b6138ca6142a0565b61156081604051806040016040528060018152602001603160f81b8152506143ba565b6138f56142a0565b6115608161442d565b6139066142a0565b61189361445f565b6000600019600061391e8561265a565b905061246a338583886141b6565b613934613f69565b8060000361395557604051630cb65c7760e21b815260040160405180910390fd5b600061395f612e01565b90508082111561278f5761397b6139768284615661565b614492565b6139859082615618565b90508082111561278f57604051631033c05760e21b815260048101829052602401611a83565b6000806139b7836129ca565b9050808511156139f357604051633fa733bb60e21b81526001600160a01b03841660048201526024810186905260448101829052606401611a83565b60006139fe866113a4565b9050613a0d338686898561476c565b95945050505050565b600080613a2283612c26565b905080851115613a5e57604051632e52afbb60e21b81526001600160a01b03841660048201526024810186905260448101829052606401611a83565b6000613a6986611379565b9050613a0d338686848a61476c565b6000611386613a8561357a565b8360405161190160f01b8152600281019290925260228201526042902090565b600080600080613ab788888888614813565b925092509250613ac782826148e2565b50909695505050505050565b613adb613f69565b7f019a888e50c7391e6e8fcd7763e66682aa228549857b7d24cf4bc363dd4e7100805460ff191660011781557f28b4c24cb1012c094cd2f59f98e89d791973295f8fda6eaa118022d6d318960a33613401565b6000805160206159d4833981519152546001600160a01b03168015613c23576001600160a01b03841615613bb85760405163632447c960e01b81526001600160a01b03858116600483015282169063632447c990602401600060405180830381600087803b158015613b9f57600080fd5b505af1158015613bb3573d6000803e3d6000fd5b505050505b6001600160a01b03831615613c235760405163632447c960e01b81526001600160a01b03848116600483015282169063632447c990602401600060405180830381600087803b158015613c0a57600080fd5b505af1158015613c1e573d6000803e3d6000fd5b505050505b611a8c84848461499b565b600080602060008451602086016000885af180613c51576040513d6000823e3d81fd5b50506000513d91508115613c69578060011415613c76565b6001600160a01b0384163b155b15611a8c57604051635274afe760e01b81526001600160a01b0385166004820152602401611a83565b6000613cce613cad83614add565b8015613cc9575060008480613cc457613cc461572a565b868809115b151590565b613cd9868686614b0a565b613a0d9190615618565b7f52c63247e1f47db19d5ce0460030c497f067ca4cebf71ba98eeadabe20bace006001600160a01b038516613d2e5760405163e602df0560e01b815260006004820152602401611a83565b6001600160a01b038416613d5857604051634a1406b160e11b815260006004820152602401611a83565b6001600160a01b03808616600090815260018301602090815260408083209388168352929052208390558115613dd657836001600160a01b0316856001600160a01b03167f8c5be1e5ebec7d5bd14f71427d1e84f3dd0314c0f7b2291e5b200ac8c7c3b92585604051613dcd91815260200190565b60405180910390a35b5050505050565b60008181526001830160205260408120548015613ec6576000613e01600183615661565b8554909150600090613e1590600190615661565b9050808214613e7a576000866000018281548110613e3557613e356156ae565b9060005260206000200154905080876000018481548110613e5857613e586156ae565b6000918252602080832090910192909255918252600188019052604090208390555b8554869080613e8b57613e8b615863565b600190038181906000526020600020016000905590558560010160008681526020019081526020016000206000905560019350505050611386565b6000915050611386565b613ed86127d2565b611893576040516399e5af5d60e01b815260040160405180910390fd5b60007f8b73c3c69bb8fe3d512ecc4cf759cc79239f7b179b0ffacaa9a75d522b39400f613f20614bbf565b613f28614c3b565b60408051602081019490945283019190915260608201524660808201523060a082015260c00160405160208183030381529060405280519060200120905090565b613f716127d2565b156118935760405163b7c4d50f60e01b815260040160405180910390fd5b613f97611ac1565b61189357604051638dfc202b60e01b815260040160405180910390fd5b613fbc613f8f565b7fcd5ed15c6e187e77e9aee88184c21f4f2182ab5827cb3b7e07fbedcd63f03300805460ff191681557f5db9ee0a495bf2e6ff9c91a7834c1ba4fdd244a5e8aa4e537bd38aeae4b073aa33613401565b600081815260018301602052604081205461405357508154600181810184556000848152602080822090930184905584548482528286019093526040902091909155611386565b506000611386565b6060816000018054806020026020016040519081016040528092919081815260200182805480156140ab57602002820191906000526020600020905b815481526020019060010190808311614097575b50505050509050919050565b60007f360894a13ba1a3210667c828492db98dca3e2076cc3735a920a3ca505d382bbc611c8b565b61156061335c565b816001600160a01b03166352d1902d6040518163ffffffff1660e01b8152600401602060405180830381865afa925050508015614141575060408051601f3d908101601f1916820190925261413e9181019061562b565b60015b61416957604051634c9c8ce360e01b81526001600160a01b0383166004820152602401611a83565b7f360894a13ba1a3210667c828492db98dca3e2076cc3735a920a3ca505d382bbc81146141ac57604051632a87526960e21b815260048101829052602401611a83565b61321a8383614c91565b6141c96141c16118cf565b85308561321f565b6141d38382612f57565b826001600160a01b0316846001600160a01b03167fdcbc1c05240f31ff3ad067ef1ee35ce4997762752e3a095284754544f4c709d78484604051614221929190918252602082015260400190565b60405180910390a350505050565b7f9016d09d72d40fdae2fd8ceac6b6234c7706214fd39c1cd1e609a0528c19930080546001600160a01b031981166001600160a01b03848116918217845560405192169182907f8be0079c531659141344cd1fd0a4f28419497f9722a3daafe3b4186f6b6457e090600090a3505050565b6142a8614ce7565b61189357604051631afcd79f60e31b815260040160405180910390fd5b6142cd6142a0565b7f52c63247e1f47db19d5ce0460030c497f067ca4cebf71ba98eeadabe20bace007f52c63247e1f47db19d5ce0460030c497f067ca4cebf71ba98eeadabe20bace0361431984826158c0565b5060048101611a8c83826158c0565b6143306142a0565b7f0773e532dfede91f04b12a73d3d2acd361424f41f76b4fb79f090161e36b4e0060008061435d84614d06565b915091508161436d57601261436f565b805b835474ffffffffffffffffffffffffffffffffffffffffff1916600160a01b60ff92909216919091026001600160a01b031916176001600160a01b0394909416939093179091555050565b6143c26142a0565b7fa16a46d94261c7517cc8ff89f61c0ce93598e3c849801011dee649a6a557d1007fa16a46d94261c7517cc8ff89f61c0ce93598e3c849801011dee649a6a557d10261440e84826158c0565b506003810161441d83826158c0565b5060008082556001909101555050565b6144356142a0565b6001600160a01b038116611c6557604051631e4fbdf760e01b815260006004820152602401611a83565b6144676142a0565b7f019a888e50c7391e6e8fcd7763e66682aa228549857b7d24cf4bc363dd4e7100805460ff19169055565b60006000805160206159d4833981519152816144ac6118cf565b9050600080600080600086600d0180548060200260200160405190810160405280929190818152602001828054801561450e57602002820191906000526020600020905b81546001600160a01b031681526001909101906020018083116144f0575b505083519394506000925050505b8181101561475d576000614530858d615661565b90506000848381518110614546576145466156ae565b602002602001015190508a600e016000826001600160a01b03166001600160a01b031681526020019081526020016000206002015498508860000361458c575050614755565b88821115614598578891505b6040516370a0823160e01b81523060048201526001600160a01b038b16906370a0823190602401602060405180830381865afa1580156145dc573d6000803e3d6000fd5b505050506040513d601f19601f82011682018060405250810190614600919061562b565b604051632e1a7d4d60e01b8152600481018490529098506001600160a01b03821690632e1a7d4d90602401600060405180830381600087803b15801561464557600080fd5b505af1925050508015614656575060015b614661575050614755565b6040516370a0823160e01b815230600482015288906001600160a01b038c16906370a0823190602401602060405180830381865afa1580156146a7573d6000803e3d6000fd5b505050506040513d601f19601f820116820180604052508101906146cb919061562b565b6146d59190615661565b965060006146e38a896130e1565b6001600160a01b0383166000908152600e8e016020526040812060020180549293508392909190614715908490615661565b92505081905550808c600a0160008282546147309190615661565b9091555061474090508888615618565b96508d87106147515750505061475d565b5050505b60010161451c565b50919998505050505050505050565b826001600160a01b0316856001600160a01b0316146147905761479083868361341f565b61479a8382614de2565b6147ac6147a56118cf565b85846131bb565b826001600160a01b0316846001600160a01b0316866001600160a01b03167ffbde797d201c681b91056529119e0b02407c7bb96a4a2c75c01fc9667232c8db8585604051614804929190918252602082015260400190565b60405180910390a45050505050565b600080807f7fffffffffffffffffffffffffffffff5d576e7357a4501ddfe92f46681b20a084111561484e57506000915060039050826148d8565b604080516000808252602082018084528a905260ff891692820192909252606081018790526080810186905260019060a0016020604051602081039080840390855afa1580156148a2573d6000803e3d6000fd5b5050604051601f1901519150506001600160a01b0381166148ce575060009250600191508290506148d8565b9250600091508190505b9450945094915050565b60008260038111156148f6576148f661597f565b036148ff575050565b60018260038111156149135761491361597f565b036149315760405163f645eedf60e01b815260040160405180910390fd5b60028260038111156149455761494561597f565b036149665760405163fce698f760e01b815260048101829052602401611a83565b600382600381111561497a5761497a61597f565b0361278f576040516335e2f38360e21b815260048101829052602401611a83565b7f52c63247e1f47db19d5ce0460030c497f067ca4cebf71ba98eeadabe20bace006001600160a01b0384166149e957818160020160008282546149de9190615618565b90915550614a5b9050565b6001600160a01b03841660009081526020829052604090205482811015614a3c5760405163391434e360e21b81526001600160a01b03861660048201526024810182905260448101849052606401611a83565b6001600160a01b03851660009081526020839052604090209083900390555b6001600160a01b038316614a79576002810180548390039055614a98565b6001600160a01b03831660009081526020829052604090208054830190555b826001600160a01b0316846001600160a01b03167fddf252ad1be2c89b69c2b068fc378daa952ba7f163c4a11628f55a4df523b3ef8460405161422191815260200190565b60006002826003811115614af357614af361597f565b614afd9190615995565b60ff166001149050919050565b6000806000614b198686614e18565b9150915081600003614b3e57838181614b3457614b3461572a565b04925050506118b4565b818411614b5557614b556003851502601118614e36565b6000848688096000868103871696879004966002600389028118808a02820302808a02820302808a02820302808a02820302808a02820302808a02909103029181900381900460010185841190960395909502919093039390930492909217029150509392505050565b60007fa16a46d94261c7517cc8ff89f61c0ce93598e3c849801011dee649a6a557d10081614beb6137fb565b805190915015614c0357805160209091012092915050565b81548015614c12579392505050565b7fc5d2460186f7233c927e7db2dcc703c0e500b653ca82273b7bfad8045d85a470935050505090565b60007fa16a46d94261c7517cc8ff89f61c0ce93598e3c849801011dee649a6a557d10081614c6761384c565b805190915015614c7f57805160209091012092915050565b60018201548015614c12579392505050565b614c9a82614e48565b6040516001600160a01b038316907fbc7cd75a20ee27fd9adebab32041f755214dbc6bffa90cc0225b39da2e5c2d3b90600090a2805115614cdf5761321a8282614ebf565b61278f614f2c565b6000614cf1613876565b5468010000000000000000900460ff16919050565b60408051600481526024810182526020810180516001600160e01b031663313ce56760e01b17905290516000918291829182916001600160a01b03871691614d4d916159b7565b600060405180830381855afa9150503d8060008114614d88576040519150601f19603f3d011682016040523d82523d6000602084013e614d8d565b606091505b5091509150818015614da157506020815110155b15614dd557600081806020019051810190614dbc919061562b565b905060ff8111614dd3576001969095509350505050565b505b5060009485945092505050565b6001600160a01b038216614e0c57604051634b637e8f60e11b815260006004820152602401611a83565b61278f82600083613b2e565b60008060001983850993909202808410938190039390930393915050565b634e487b71600052806020526024601cfd5b806001600160a01b03163b600003614e7e57604051634c9c8ce360e01b81526001600160a01b0382166004820152602401611a83565b7f360894a13ba1a3210667c828492db98dca3e2076cc3735a920a3ca505d382bbc80546001600160a01b0319166001600160a01b0392909216919091179055565b6060600080846001600160a01b031684604051614edc91906159b7565b600060405180830381855af49150503d8060008114614f17576040519150601f19603f3d011682016040523d82523d6000602084013e614f1c565b606091505b5091509150613a0d858383614f4b565b34156118935760405163b398979f60e01b815260040160405180910390fd5b606082614f6057614f5b82614fa7565b6118b4565b8151158015614f7757506001600160a01b0384163b155b15614fa057604051639996b31560e01b81526001600160a01b0385166004820152602401611a83565b50806118b4565b805115614fb657805160208201fd5b60405163d6bda27560e01b815260040160405180910390fd5b828054828255906000526020600020908101928215615024579160200282015b8281111561502457825182546001600160a01b0319166001600160a01b03909116178255602090920191600190910190614fef565b50615030929150615034565b5090565b5b808211156150305760008155600101615035565b60008060006060848603121561505e57600080fd5b505081359360208301359350604090920135919050565b60005b83811015615090578181015183820152602001615078565b50506000910152565b600081518084526150b1816020860160208601615075565b601f01601f19169290920160200192915050565b6020815260006118b46020830184615099565b6000602082840312156150ea57600080fd5b5035919050565b6001600160a01b038116811461156057600080fd5b6000806040838503121561511957600080fd5b8235615124816150f1565b946020939093013593505050565b602080825282518282018190526000918401906040840190835b818110156151735783516001600160a01b031683526020938401939092019160010161514c565b509095945050505050565b60006020828403121561519057600080fd5b81356118b4816150f1565b6000806000606084860312156151b057600080fd5b83356151bb816150f1565b925060208401356151cb816150f1565b929592945050506040919091013590565b634e487b7160e01b600052604160045260246000fd5b604051601f8201601f1916810167ffffffffffffffff8111828210171561521b5761521b6151dc565b604052919050565b60008067ffffffffffffffff84111561523e5761523e6151dc565b50601f8301601f1916602001615253816151f2565b91505082815283838301111561526857600080fd5b828260208301376000602084830101529392505050565b6000806040838503121561529257600080fd5b823561529d816150f1565b9150602083013567ffffffffffffffff8111156152b957600080fd5b8301601f810185136152ca57600080fd5b6152d985823560208401615223565b9150509250929050565b600080604083850312156152f657600080fd5b823591506020830135615308816150f1565b809150509250929050565b60ff60f81b8816815260e06020820152600061533260e0830189615099565b82810360408401526153448189615099565b606084018890526001600160a01b038716608085015260a0840186905283810360c08501528451808252602080870193509091019060005b8181101561539a57835183526020938401939092019160010161537c565b50909b9a5050505050505050505050565b6000602082840312156153bd57600080fd5b813567ffffffffffffffff8111156153d457600080fd5b8201601f810184136153e557600080fd5b803567ffffffffffffffff8111156153ff576153ff6151dc565b8060051b61540f602082016151f2565b9182526020818401810192908101908784111561542b57600080fd5b6020850194505b838510156154595784359250615447836150f1565b82825260209485019490910190615432565b979650505050505050565b600082601f83011261547557600080fd5b6118b483833560208501615223565b6000806000806080858703121561549a57600080fd5b843567ffffffffffffffff8111156154b157600080fd5b6154bd87828801615464565b945050602085013567ffffffffffffffff8111156154da57600080fd5b6154e687828801615464565b93505060408501356154f7816150f1565b91506060850135615507816150f1565b939692955090935050565b60008060006060848603121561552757600080fd5b833592506020840135615539816150f1565b91506040840135615549816150f1565b809150509250925092565b6000806040838503121561556757600080fd5b8235615572816150f1565b91506020830135615308816150f1565b60ff8116811461156057600080fd5b600080600080600080600060e0888a0312156155ac57600080fd5b87356155b7816150f1565b965060208801356155c7816150f1565b9550604088013594506060880135935060808801356155e581615582565b9699959850939692959460a0840135945060c09093013592915050565b634e487b7160e01b600052601160045260246000fd5b8082018082111561138657611386615602565b60006020828403121561563d57600080fd5b5051919050565b60006020828403121561565657600080fd5b81516118b4816150f1565b8181038181111561138657611386615602565b600181811c9082168061568857607f821691505b6020821081036156a857634e487b7160e01b600052602260045260246000fd5b50919050565b634e487b7160e01b600052603260045260246000fd5b6000600182016156d6576156d6615602565b5060010190565b6000602082840312156156ef57600080fd5b81516118b481615582565b60ff828116828216039081111561138657611386615602565b808202811582820484141761138657611386615602565b634e487b7160e01b600052601260045260246000fd5b60008261574f5761574f61572a565b500490565b6001815b600184111561578f5780850481111561577357615773615602565b600184161561578157908102905b60019390931c928002615758565b935093915050565b6000826157a657506001611386565b816157b357506000611386565b81600181146157c957600281146157d3576157ef565b6001915050611386565b60ff8411156157e4576157e4615602565b50506001821b611386565b5060208310610133831016604e8410600b8410161715615812575081810a611386565b61581f6000198484615754565b806000190482111561583357615833615602565b029392505050565b60006118b460ff841683615797565b60ff818116838216019081111561138657611386615602565b634e487b7160e01b600052603160045260246000fd5b601f82111561321a57806000526020600020601f840160051c810160208510156158a05750805b601f840160051c820191505b81811015613dd657600081556001016158ac565b815167ffffffffffffffff8111156158da576158da6151dc565b6158ee816158e88454615674565b84615879565b6020601f821160018114615922576000831561590a5750848201515b600019600385901b1c1916600184901b178455613dd6565b600084815260208120601f198516915b828110156159525787850151825560209485019460019092019101615932565b50848210156159705786840151600019600387901b60f8161c191681555b50505050600190811b01905550565b634e487b7160e01b600052602160045260246000fd5b600060ff8316806159a8576159a861572a565b8060ff84160691505092915050565b600082516159c9818460208701615075565b919091019291505056febaeaf235c9c9807c1f4a2c352810dd4cb4b0d3d0f2cf0b692f9279e99df38e00baeaf235c9c9807c1f4a2c352810dd4cb4b0d3d0f2cf0b692f9279e99df38e0ea264697066735822122012eea9f31a5756718bee6294ff82ae386c726225e5d19fa38b16dc0c2d71ecc564736f6c634300081e0033",
  "devdoc": {
    "errors": {
      "AddressEmptyCode(address)": [
        {
          "details": "There's no code at `target` (it is not a contract)."
        }
      ],
      "ECDSAInvalidSignature()": [
        {
          "details": "The signature derives the `address(0)`."
        }
      ],
      "ECDSAInvalidSignatureLength(uint256)": [
        {
          "details": "The signature has an invalid length."
        }
      ],
      "ECDSAInvalidSignatureS(bytes32)": [
        {
          "details": "The signature has an S value that is in the upper half order."
        }
      ],
      "ERC1967InvalidImplementation(address)": [
        {
          "details": "The `implementation` of the proxy is invalid."
        }
      ],
      "ERC1967NonPayable()": [
        {
          "details": "An upgrade function sees `msg.value > 0` that may be lost."
        }
      ],
      "ERC20InsufficientAllowance(address,uint256,uint256)": [
        {
          "details": "Indicates a failure with the `spender`s `allowance`. Used in transfers.",
          "params": {
            "allowance": "Amount of tokens a `spender` is allowed to operate with.",
            "needed": "Minimum amount required to perform a transfer.",
            "spender": "Address that may be allowed to operate on tokens without being their owner."
          }
        }
      ],
      "ERC20InsufficientBalance(address,uint256,uint256)": [
        {
          "details": "Indicates an error related to the current `balance` of a `sender`. Used in transfers.",
          "params": {
            "balance": "Current balance for the interacting account.",
            "needed": "Minimum amount required to perform a transfer.",
            "sender": "Address whose tokens are being transferred."
          }
        }
      ],
      "ERC20InvalidApprover(address)": [
        {
          "details": "Indicates a failure with the `approver` of a token to be approved. Used in approvals.",
          "params": {
            "approver": "Address initiating an approval operation."
          }
        }
      ],
      "ERC20InvalidReceiver(address)": [
        {
          "details": "Indicates a failure with the token `receiver`. Used in transfers.",
          "params": {
            "receiver": "Address to which tokens are being transferred."
          }
        }
      ],
      "ERC20InvalidSender(address)": [
        {
          "details": "Indicates a failure with the token `sender`. Used in transfers.",
          "params": {
            "sender": "Address whose tokens are being transferred."
          }
        }
      ],
      "ERC20InvalidSpender(address)": [
        {
          "details": "Indicates a failure with the `spender` to be approved. Used in approvals.",
          "params": {
            "spender": "Address that may be allowed to operate on tokens without being their owner."
          }
        }
      ],
      "ERC2612ExpiredSignature(uint256)": [
        {
          "details": "Permit deadline has expired."
        }
      ],
      "ERC2612InvalidSigner(address,address)": [
        {
          "details": "Mismatched signature."
        }
      ],
      "ERC4626ExceededMaxDeposit(address,uint256,uint256)": [
        {
          "details": "Attempted to deposit more assets than the max amount for `receiver`."
        }
      ],
      "ERC4626ExceededMaxMint(address,uint256,uint256)": [
        {
          "details": "Attempted to mint more shares than the max amount for `receiver`."
        }
      ],
      "ERC4626ExceededMaxRedeem(address,uint256,uint256)": [
        {
          "details": "Attempted to redeem more shares than the max amount for `receiver`."
        }
      ],
      "ERC4626ExceededMaxWithdraw(address,uint256,uint256)": [
        {
          "details": "Attempted to withdraw more assets than the max amount for `receiver`."
        }
      ],
      "EnforcedPause()": [
        {
          "details": "The operation failed because the contract is paused."
        }
      ],
      "EnforcedShutdown()": [
        {
          "details": "The operation failed because the contract is shutdown."
        }
      ],
      "ExpectedPause()": [
        {
          "details": "The operation failed because the contract is not paused."
        }
      ],
      "ExpectedShutdown()": [
        {
          "details": "The operation failed because the contract is not shutdown."
        }
      ],
      "FailedCall()": [
        {
          "details": "A call to an address target failed. The target may have reverted."
        }
      ],
      "InvalidAccountNonce(address,uint256)": [
        {
          "details": "The nonce used for an `account` is not the expected current nonce."
        }
      ],
      "InvalidInitialization()": [
        {
          "details": "The contract is already initialized."
        }
      ],
      "NotInitializing()": [
        {
          "details": "The contract is not initializing."
        }
      ],
      "OwnableInvalidOwner(address)": [
        {
          "details": "The owner is not a valid owner account. (eg. `address(0)`)"
        }
      ],
      "OwnableUnauthorizedAccount(address)": [
        {
          "details": "The caller account is not authorized to perform an operation."
        }
      ],
      "SafeERC20FailedOperation(address)": [
        {
          "details": "An operation with an ERC-20 token failed."
        }
      ],
      "UUPSUnauthorizedCallContext()": [
        {
          "details": "The call is from an unauthorized context."
        }
      ],
      "UUPSUnsupportedProxiableUUID(bytes32)": [
        {
          "details": "The storage `slot` is unsupported as a UUID."
        }
      ]
    },
    "events": {
      "Approval(address,address,uint256)": {
        "details": "Emitted when the allowance of a `spender` for an `owner` is set by a call to {approve}. `value` is the new allowance."
      },
      "EIP712DomainChanged()": {
        "details": "MAY be emitted to signal that the domain could have changed."
      },
      "Initialized(uint64)": {
        "details": "Triggered when the contract has been initialized or reinitialized."
      },
      "Paused(address)": {
        "details": "Emitted when the pause is triggered by `account`."
      },
      "Restart(address)": {
        "details": "Emitted when the shutdown is lifted by `account`."
      },
      "Shutdown(address)": {
        "details": "Emitted when the shutdown is triggered by `account`."
      },
      "Transfer(address,address,uint256)": {
        "details": "Emitted when `value` tokens are moved from one account (`from`) to another (`to`). Note that `value` may be zero."
      },
      "Unpaused(address)": {
        "details": "Emitted when the pause is lifted by `account`."
      },
      "Upgraded(address)": {
        "details": "Emitted when the implementation is upgraded."
      }
    },
    "kind": "dev",
    "methods": {
      "DOMAIN_SEPARATOR()": {
        "details": "Returns the domain separator used in the encoding of the signature for {permit}, as defined by {EIP712}."
      },
      "acceptOwnership()": {
        "details": "The new owner accepts the ownership transfer."
      },
      "addKeeper(address)": {
        "params": {
          "keeperAddress_": "keeper address to add."
        }
      },
      "addMaintainer(address)": {
        "params": {
          "maintainerAddress_": "maintainer address to add."
        }
      },
      "addStrategy(address,uint256)": {
        "details": "Recalculate vault level external deposit fee after all state variables are updated.",
        "params": {
          "debtRatio_": "Vault fund allocation to this strategy",
          "strategy_": "Strategy address"
        }
      },
      "allowance(address,address)": {
        "details": "Returns the remaining number of tokens that `spender` will be allowed to spend on behalf of `owner` through {transferFrom}. This is zero by default. This value changes when {approve} or {transferFrom} are called."
      },
      "approve(address,uint256)": {
        "details": "See {IERC20-approve}. NOTE: If `value` is the maximum `uint256`, the allowance is not updated on `transferFrom`. This is semantically equivalent to an infinite approval. Requirements: - `spender` cannot be the zero address."
      },
      "asset()": {
        "details": "Returns the address of the underlying token used for the Vault for accounting, depositing, and withdrawing. - MUST be an ERC-20 token contract. - MUST NOT revert."
      },
      "balanceOf(address)": {
        "details": "Returns the value of tokens owned by `account`."
      },
      "constructor": {
        "custom:oz-upgrades-unsafe-allow": "constructor"
      },
      "convertToAssets(uint256)": {
        "details": "Returns the amount of assets that the Vault would exchange for the amount of shares provided, in an ideal scenario where all the conditions are met. - MUST NOT be inclusive of any fees that are charged against assets in the Vault. - MUST NOT show any variations depending on the caller. - MUST NOT reflect slippage or other on-chain conditions, when performing the actual exchange. - MUST NOT revert. NOTE: This calculation MAY NOT reflect the per-user price-per-share, and instead should reflect the average-users price-per-share, meaning what the average user should expect to see when exchanging to and from."
      },
      "convertToShares(uint256)": {
        "details": "Returns the amount of shares that the Vault would exchange for the amount of assets provided, in an ideal scenario where all the conditions are met. - MUST NOT be inclusive of any fees that are charged against assets in the Vault. - MUST NOT show any variations depending on the caller. - MUST NOT reflect slippage or other on-chain conditions, when performing the actual exchange. - MUST NOT revert. NOTE: This calculation MAY NOT reflect the per-user price-per-share, and instead should reflect the average-users price-per-share, meaning what the average user should expect to see when exchanging to and from."
      },
      "deposit(uint256,address)": {
        "details": "Mints shares Vault shares to receiver by depositing exactly amount of underlying tokens. - MUST emit the Deposit event. - MAY support an additional flow in which the underlying tokens are owned by the Vault contract before the   deposit execution, and are accounted for during deposit. - MUST revert if all of assets cannot be deposited (due to deposit limit being reached, slippage, the user not   approving enough underlying tokens to the Vault contract, etc). NOTE: most implementations will require pre-approval of the Vault with the Vaults underlying asset token."
      },
      "eip712Domain()": {
        "details": "returns the fields and values that describe the domain separator used by this contract for EIP-712 signature."
      },
      "governor()": {
        "returns": {
          "_0": "owner address"
        }
      },
      "isShutdown()": {
        "details": "Returns true if the contract is shutdown, and false otherwise."
      },
      "maxDeposit(address)": {
        "details": "Returns the maximum amount of the underlying asset that can be deposited into the Vault for the receiver, through a deposit call. - MUST return a limited value if receiver is subject to some deposit limit. - MUST return 2 ** 256 - 1 if there is no limit on the maximum amount of assets that may be deposited. - MUST NOT revert."
      },
      "maxMint(address)": {
        "details": "Returns the maximum amount of the Vault shares that can be minted for the receiver, through a mint call. - MUST return a limited value if receiver is subject to some mint limit. - MUST return 2 ** 256 - 1 if there is no limit on the maximum amount of shares that may be minted. - MUST NOT revert."
      },
      "maxRedeem(address)": {
        "details": "Returns the maximum amount of Vault shares that can be redeemed from the owner balance in the Vault, through a redeem call. - MUST return a limited value if owner is subject to some withdrawal limit or timelock. - MUST return balanceOf(owner) if owner is not subject to any withdrawal limit or timelock. - MUST NOT revert."
      },
      "maxWithdraw(address)": {
        "details": "Returns the maximum amount of the underlying asset that can be withdrawn from the owner balance in the Vault, through a withdraw call. - MUST return a limited value if owner is subject to some withdrawal limit or timelock. - MUST NOT revert."
      },
      "mint(uint256,address)": {
        "details": "Mints exactly shares Vault shares to receiver by depositing amount of underlying tokens. - MUST emit the Deposit event. - MAY support an additional flow in which the underlying tokens are owned by the Vault contract before the mint   execution, and are accounted for during mint. - MUST revert if all of shares cannot be minted (due to deposit limit being reached, slippage, the user not   approving enough underlying tokens to the Vault contract, etc). NOTE: most implementations will require pre-approval of the Vault with the Vaults underlying asset token."
      },
      "name()": {
        "details": "Returns the name of the token."
      },
      "nonces(address)": {
        "details": "Returns the current nonce for `owner`. This value must be included whenever a signature is generated for {permit}. Every successful call to {permit} increases ``owner``'s nonce by one. This prevents a signature from being used multiple times."
      },
      "owner()": {
        "details": "Returns the address of the current owner."
      },
      "paused()": {
        "details": "Returns true if the contract is paused or shutdown, and false otherwise."
      },
      "pendingOwner()": {
        "details": "Returns the address of the pending owner."
      },
      "permit(address,address,uint256,uint256,uint8,bytes32,bytes32)": {
        "details": "Sets `value` as the allowance of `spender` over ``owner``'s tokens, given ``owner``'s signed approval. IMPORTANT: The same issues {IERC20-approve} has related to transaction ordering also apply here. Emits an {Approval} event. Requirements: - `spender` cannot be the zero address. - `deadline` must be a timestamp in the future. - `v`, `r` and `s` must be a valid `secp256k1` signature from `owner` over the EIP712-formatted function arguments. - the signature must use ``owner``'s current nonce (see {nonces}). For more information on the signature format, see the https://eips.ethereum.org/EIPS/eip-2612#specification[relevant EIP section]. CAUTION: See Security Considerations above."
      },
      "previewDeposit(uint256)": {
        "details": "Allows an on-chain or off-chain user to simulate the effects of their deposit at the current block, given current on-chain conditions. - MUST return as close to and no more than the exact amount of Vault shares that would be minted in a deposit   call in the same transaction. I.e. deposit should return the same or more shares as previewDeposit if called   in the same transaction. - MUST NOT account for deposit limits like those returned from maxDeposit and should always act as though the   deposit would be accepted, regardless if the user has enough tokens approved, etc. - MUST be inclusive of deposit fees. Integrators should be aware of the existence of deposit fees. - MUST NOT revert. NOTE: any unfavorable discrepancy between convertToShares and previewDeposit SHOULD be considered slippage in share price or some other type of condition, meaning the depositor will lose assets by depositing."
      },
      "previewMint(uint256)": {
        "details": "Allows an on-chain or off-chain user to simulate the effects of their mint at the current block, given current on-chain conditions. - MUST return as close to and no fewer than the exact amount of assets that would be deposited in a mint call   in the same transaction. I.e. mint should return the same or fewer assets as previewMint if called in the   same transaction. - MUST NOT account for mint limits like those returned from maxMint and should always act as though the mint   would be accepted, regardless if the user has enough tokens approved, etc. - MUST be inclusive of deposit fees. Integrators should be aware of the existence of deposit fees. - MUST NOT revert. NOTE: any unfavorable discrepancy between convertToAssets and previewMint SHOULD be considered slippage in share price or some other type of condition, meaning the depositor will lose assets by minting."
      },
      "previewRedeem(uint256)": {
        "details": "Allows an on-chain or off-chain user to simulate the effects of their redemption at the current block, given current on-chain conditions. - MUST return as close to and no more than the exact amount of assets that would be withdrawn in a redeem call   in the same transaction. I.e. redeem should return the same or more assets as previewRedeem if called in the   same transaction. - MUST NOT account for redemption limits like those returned from maxRedeem and should always act as though the   redemption would be accepted, regardless if the user has enough shares, etc. - MUST be inclusive of withdrawal fees. Integrators should be aware of the existence of withdrawal fees. - MUST NOT revert. NOTE: any unfavorable discrepancy between convertToAssets and previewRedeem SHOULD be considered slippage in share price or some other type of condition, meaning the depositor will lose assets by redeeming."
      },
      "previewWithdraw(uint256)": {
        "details": "Allows an on-chain or off-chain user to simulate the effects of their withdrawal at the current block, given current on-chain conditions. - MUST return as close to and no fewer than the exact amount of Vault shares that would be burned in a withdraw   call in the same transaction. I.e. withdraw should return the same or fewer shares as previewWithdraw if   called   in the same transaction. - MUST NOT account for withdrawal limits like those returned from maxWithdraw and should always act as though   the withdrawal would be accepted, regardless if the user has enough shares, etc. - MUST be inclusive of withdrawal fees. Integrators should be aware of the existence of withdrawal fees. - MUST NOT revert. NOTE: any unfavorable discrepancy between convertToShares and previewWithdraw SHOULD be considered slippage in share price or some other type of condition, meaning the depositor will lose assets by depositing."
      },
      "proxiableUUID()": {
        "details": "Implementation of the ERC-1822 {proxiableUUID} function. This returns the storage slot used by the implementation. It is used to validate the implementation's compatibility when performing an upgrade. IMPORTANT: A proxy pointing at a proxiable contract should not be considered proxiable itself, because this risks bricking a proxy that upgrades to it, by delegating to itself until out of gas. Thus it is critical that this function revert if invoked through a proxy. This is guaranteed by the `notDelegated` modifier."
      },
      "redeem(uint256,address,address)": {
        "details": "Burns exactly shares from owner and sends assets of underlying tokens to receiver. - MUST emit the Withdraw event. - MAY support an additional flow in which the underlying tokens are owned by the Vault contract before the   redeem execution, and are accounted for during redeem. - MUST revert if all of shares cannot be redeemed (due to withdrawal limit being reached, slippage, the owner   not having enough shares, etc). NOTE: some implementations will require pre-requesting to the Vault before a withdrawal may be performed. Those methods should be performed separately."
      },
      "removeKeeper(address)": {
        "params": {
          "keeperAddress_": "keeper address to remove."
        }
      },
      "removeMaintainer(address)": {
        "params": {
          "maintainerAddress_": "maintainer address to remove."
        }
      },
      "removeStrategy(address)": {
        "details": "If strategy has non-zero debt then it can NOT be removed.Removal of strategy will lead to update in withdraw queue as well. Make sure order of withdraw queue remains same.",
        "params": {
          "strategy_": "address of strategy to remove."
        }
      },
      "renounceOwnership()": {
        "details": "Leaves the contract without owner. It will not be possible to call `onlyOwner` functions. Can only be called by the current owner. NOTE: Renouncing ownership will leave the contract without an owner, thereby disabling any functionality that is only available to the owner."
      },
      "reportEarning(uint256,uint256,uint256)": {
        "params": {
          "loss_": "Reduce debt ,also reduce debtRatio, increase loss in record.",
          "payback_": "strategy willing to payback outstanding above debtLimit. no performance fee on this amount.  when governance has reduced debtRatio of strategy, strategy will report profit and payback amount separately.",
          "profit_": "yield generated by strategy. Strategy get performance fee on this amount"
        }
      },
      "reportLoss(uint256)": {
        "details": "Some strategies pay deposit fee thus realizing loss at deposit. For example: Curve's 3vault has some slippage due to deposit of one asset in 3vault. Strategy may want report this loss instead of waiting for next rebalance.",
        "params": {
          "loss_": "Loss that strategy want to report"
        }
      },
      "sweep(address,address)": {
        "params": {
          "fromToken_": "Token address to sweep",
          "to_": "address where tokens will be sent"
        }
      },
      "symbol()": {
        "details": "Returns the symbol of the token, usually a shorter version of the name."
      },
      "token()": {
        "returns": {
          "_0": "asset address"
        }
      },
      "totalAssets()": {
        "details": "Returns the total amount of the underlying asset that is managed by Vault. - SHOULD include any compounding that occurs from yield. - MUST be inclusive of any fees that are charged against assets in the Vault. - MUST NOT revert."
      },
      "totalSupply()": {
        "details": "Returns the value of tokens in existence."
      },
      "transfer(address,uint256)": {
        "details": "See {IERC20-transfer}. Requirements: - `to` cannot be the zero address. - the caller must have a balance of at least `value`."
      },
      "transferFrom(address,address,uint256)": {
        "details": "See {IERC20-transferFrom}. Skips emitting an {Approval} event indicating an allowance update. This is not required by the ERC. See {xref-ERC20-_approve-address-address-uint256-bool-}[_approve]. NOTE: Does not update the allowance if the current allowance is the maximum `uint256`. Requirements: - `from` and `to` cannot be the zero address. - `from` must have a balance of at least `value`. - the caller must have allowance for ``from``'s tokens of at least `value`."
      },
      "transferOwnership(address)": {
        "details": "Starts the ownership transfer of the contract to a new account. Replaces the pending transfer if there is one. Can only be called by the current owner. Setting `newOwner` to the zero address is allowed; this can be used to cancel an initiated ownership transfer."
      },
      "updateDebtRatio(address,uint256)": {
        "details": "A strategy is retired when debtRatio is 0As debtRatio impacts vault level external deposit fee hence recalculate it after updating debtRatio.",
        "params": {
          "debtRatio_": "New debt ratio",
          "strategy_": "Strategy address for which debt ratio is being updated"
        }
      },
      "updateMaximumProfitAsFee(uint256)": {
        "params": {
          "newMaxProfitAsFee_": "New max profit as fee"
        }
      },
      "updateMinimumDepositLimit(uint256)": {
        "params": {
          "newLimit_": "New minimum deposit limit"
        }
      },
      "updateUniversalFee(uint256)": {
        "details": "Format: 1500 = 15% fee, 100 = 1%",
        "params": {
          "newUniversalFee_": "new universal fee"
        }
      },
      "updateVaultRewards(address)": {
        "params": {
          "newVaultRewards_": "new vault rewards address"
        }
      },
      "updateWithdrawQueue(address[])": {
        "details": "The vault typically maintains a buffer to satisfy withdrawal requests. Any request exceeding the buffer level will be processed through the withdrawQueue. In this case, withdrawQueue[0] will be the first strategy to receive the withdrawal request.",
        "params": {
          "withdrawQueue_": "List of strategy ordered by withdrawal priority."
        }
      },
      "upgradeToAndCall(address,bytes)": {
        "details": "Upgrade the implementation of the proxy to `newImplementation`, and subsequently execute the function call encoded in `data`. Calls {_authorizeUpgrade}. Emits an {Upgraded} event."
      },
      "vaultAccountant()": {
        "returns": {
          "_0": "zero address, as there is no VaultAccountant in V6 vaults"
        }
      },
      "withdraw(uint256,address,address)": {
        "details": "Burns shares from owner and sends exactly assets of underlying tokens to receiver. - MUST emit the Withdraw event. - MAY support an additional flow in which the underlying tokens are owned by the Vault contract before the   withdraw execution, and are accounted for during withdraw. - MUST revert if all of assets cannot be withdrawn (due to withdrawal limit being reached, slippage, the owner   not having enough shares, etc). Note that some implementations will require pre-requesting to the Vault before a withdrawal may be performed. Those methods should be performed separately."
      }
    },
    "version": 1
  },
  "userdoc": {
    "kind": "user",
    "methods": {
      "addKeeper(address)": {
        "notice": "Add given address in keepers list."
      },
      "addMaintainer(address)": {
        "notice": "Add given address in maintainers list."
      },
      "addStrategy(address,uint256)": {
        "notice": "onlyOwner:: Add strategy. Once strategy is added it can call rebalance and borrow fund from vault and invest that fund in provider/lender."
      },
      "governor()": {
        "notice": "Below functions are added for compatibility with V6 strategiesThis function is needed for compatibility with V6 strategies."
      },
      "removeKeeper(address)": {
        "notice": "Remove given address from keepers list."
      },
      "removeMaintainer(address)": {
        "notice": "Remove given address from maintainers list."
      },
      "removeStrategy(address)": {
        "notice": "onlyOwner:: Remove strategy."
      },
      "reportEarning(uint256,uint256,uint256)": {
        "notice": "onlyStrategy:: Strategy call this in regular interval. Only strategy function."
      },
      "reportLoss(uint256)": {
        "notice": "onlyStrategy:: Report loss outside of rebalance activity."
      },
      "sweep(address,address)": {
        "notice": "onlyOwner:: Transfer given ERC20 token to given address"
      },
      "token()": {
        "notice": "This function is needed for compatibility with V6 strategies."
      },
      "updateDebtRatio(address,uint256)": {
        "notice": "onlyMaintainer:: Update debt ratio."
      },
      "updateMaximumProfitAsFee(uint256)": {
        "notice": "OnlyOwner:: Update maximum profit that can be used as universal fee"
      },
      "updateMinimumDepositLimit(uint256)": {
        "notice": "OnlyOwner:: Update minimum deposit limit"
      },
      "updateUniversalFee(uint256)": {
        "notice": "OnlyOwner:: Update universal fee for this vault"
      },
      "updateVaultRewards(address)": {
        "notice": "OnlyOwner:: Update vault rewards address for this vault"
      },
      "updateWithdrawQueue(address[])": {
        "notice": "onlyMaintainer:: Update withdraw queue."
      },
      "vaultAccountant()": {
        "notice": "This function is needed for compatibility with V6 strategies."
      }
    },
    "version": 1
  },
  "storageLayout": {
    "storage": [],
    "types": null
  }
}