{
  "address": "0x6A18244c9aBb625651cd9c61654404e76E383aAe",
  "abi": [
    {
      "inputs": [
        {
          "internalType": "address",
          "name": "vaultImplementation_",
          "type": "address"
        },
        {
          "internalType": "address",
          "name": "owner_",
          "type": "address"
        }
      ],
      "stateMutability": "nonpayable",
      "type": "constructor"
    },
    {
      "inputs": [],
      "name": "AddressIsNull",
      "type": "error"
    },
    {
      "inputs": [],
      "name": "ImplementationIsNotContract",
      "type": "error"
    },
    {
      "inputs": [
        {
          "internalType": "address",
          "name": "owner",
          "type": "address"
        }
      ],
      "name": "OwnableInvalidOwner",
      "type": "error"
    },
    {
      "inputs": [
        {
          "internalType": "address",
          "name": "account",
          "type": "address"
        }
      ],
      "name": "OwnableUnauthorizedAccount",
      "type": "error"
    },
    {
      "anonymous": false,
      "inputs": [
        {
          "indexed": true,
          "internalType": "address",
          "name": "oldImplementation",
          "type": "address"
        },
        {
          "indexed": true,
          "internalType": "address",
          "name": "newImplementation",
          "type": "address"
        }
      ],
      "name": "ImplementationUpdated",
      "type": "event"
    },
    {
      "anonymous": false,
      "inputs": [
        {
          "indexed": true,
          "internalType": "address",
          "name": "previousOwner",
          "type": "address"
        },
        {
          "indexed": true,
          "internalType": "address",
          "name": "newOwner",
          "type": "address"
        }
      ],
      "name": "OwnershipTransferStarted",
      "type": "event"
    },
    {
      "anonymous": false,
      "inputs": [
        {
          "indexed": true,
          "internalType": "address",
          "name": "previousOwner",
          "type": "address"
        },
        {
          "indexed": true,
          "internalType": "address",
          "name": "newOwner",
          "type": "address"
        }
      ],
      "name": "OwnershipTransferred",
      "type": "event"
    },
    {
      "anonymous": false,
      "inputs": [
        {
          "indexed": true,
          "internalType": "address",
          "name": "vault",
          "type": "address"
        },
        {
          "indexed": false,
          "internalType": "string",
          "name": "name",
          "type": "string"
        },
        {
          "indexed": false,
          "internalType": "string",
          "name": "symbol",
          "type": "string"
        },
        {
          "indexed": true,
          "internalType": "address",
          "name": "asset",
          "type": "address"
        },
        {
          "indexed": true,
          "internalType": "address",
          "name": "owner",
          "type": "address"
        }
      ],
      "name": "UpgradableVaultCreated",
      "type": "event"
    },
    {
      "inputs": [],
      "name": "acceptOwnership",
      "outputs": [],
      "stateMutability": "nonpayable",
      "type": "function"
    },
    {
      "inputs": [
        {
          "internalType": "string",
          "name": "name_",
          "type": "string"
        },
        {
          "internalType": "string",
          "name": "symbol_",
          "type": "string"
        },
        {
          "internalType": "address",
          "name": "asset_",
          "type": "address"
        },
        {
          "internalType": "address",
          "name": "owner_",
          "type": "address"
        }
      ],
      "name": "createVault",
      "outputs": [
        {
          "internalType": "address",
          "name": "vault",
          "type": "address"
        }
      ],
      "stateMutability": "nonpayable",
      "type": "function"
    },
    {
      "inputs": [],
      "name": "owner",
      "outputs": [
        {
          "internalType": "address",
          "name": "",
          "type": "address"
        }
      ],
      "stateMutability": "view",
      "type": "function"
    },
    {
      "inputs": [],
      "name": "pendingOwner",
      "outputs": [
        {
          "internalType": "address",
          "name": "",
          "type": "address"
        }
      ],
      "stateMutability": "view",
      "type": "function"
    },
    {
      "inputs": [],
      "name": "renounceOwnership",
      "outputs": [],
      "stateMutability": "nonpayable",
      "type": "function"
    },
    {
      "inputs": [
        {
          "internalType": "address",
          "name": "newOwner",
          "type": "address"
        }
      ],
      "name": "transferOwnership",
      "outputs": [],
      "stateMutability": "nonpayable",
      "type": "function"
    },
    {
      "inputs": [
        {
          "internalType": "address",
          "name": "newImplementation_",
          "type": "address"
        }
      ],
      "name": "updateImplementation",
      "outputs": [],
      "stateMutability": "nonpayable",
      "type": "function"
    },
    {
      "inputs": [],
      "name": "vaultImplementation",
      "outputs": [
        {
          "internalType": "address",
          "name": "",
          "type": "address"
        }
      ],
      "stateMutability": "view",
      "type": "function"
    }
  ],
  "transactionHash": "0xe8117a32bab2ede8303e51220c0eded2c4b8095e8895f601b2c1463592416e0b",
  "args": [
    "0x9967F8dE0b858efC6ffFBe22C7C87aC5935C6cF9",
    "0xd30D9A2dF09BA93CB1C68cC179b1B9B5f03AE431"
  ],
  "numDeployments": 3,
  "solcInputHash": "153ac5b34ca267748903cce930df5b1a",
  "bytecode": "0x608060405234801561001057600080fd5b50604051610ca1380380610ca183398101604081905261002f9161013d565b806001600160a01b03811661005e57604051631e4fbdf760e01b81526000600482015260240160405180910390fd5b610067816100b5565b506001600160a01b03821661008f5760405163fb7566d760e01b815260040160405180910390fd5b50600280546001600160a01b0319166001600160a01b0392909216919091179055610170565b600180546001600160a01b03191690556100ce816100d1565b50565b600080546001600160a01b038381166001600160a01b0319831681178455604051919092169283917f8be0079c531659141344cd1fd0a4f28419497f9722a3daafe3b4186f6b6457e09190a35050565b80516001600160a01b038116811461013857600080fd5b919050565b6000806040838503121561015057600080fd5b61015983610121565b915061016760208401610121565b90509250929050565b610b228061017f6000396000f3fe608060405234801561001057600080fd5b50600436106100885760003560e01c8063b7a7e9061161005b578063b7a7e906146100db578063bba48a90146100ee578063e30c397814610101578063f2fde38b1461011257600080fd5b8063025b22bc1461008d578063715018a6146100a257806379ba5097146100aa5780638da5cb5b146100b2575b600080fd5b6100a061009b366004610492565b610125565b005b6100a06101d1565b6100a06101e5565b6000546001600160a01b03165b6040516001600160a01b03909116815260200160405180910390f35b6100bf6100e9366004610559565b61022e565b6002546100bf906001600160a01b031681565b6001546001600160a01b03166100bf565b6100a0610120366004610492565b610367565b61012d6103d8565b6001600160a01b0381166101545760405163fb7566d760e01b815260040160405180910390fd5b806001600160a01b03163b60000361017f5760405163e84f0f9960e01b815260040160405180910390fd5b600280546001600160a01b038381166001600160a01b0319831681179093556040519116919082907faa3f731066a578e5f39b4215468d826cdd15373cbc0dfc9cb9bdc649718ef7da90600090a35050565b6101d96103d8565b6101e36000610405565b565b60015433906001600160a01b031681146102225760405163118cdaa760e01b81526001600160a01b03821660048201526024015b60405180910390fd5b61022b81610405565b50565b60006102386103d8565b6001600160a01b03831661025f5760405163fb7566d760e01b815260040160405180910390fd5b6000858585856040516024016102789493929190610629565b60408051601f198184030181529181526020820180517bffffffffffffffffffffffffffffffffffffffffffffffffffffffff166323c56d0560e21b17905260025490519192506000916001600160a01b039091169083906102d990610469565b6102e4929190610678565b604051809103906000f080158015610300573d6000803e3d6000fd5b509050809250836001600160a01b0316856001600160a01b0316846001600160a01b03167ff337784fb23102da3c455a1d86aa457e6275474f3cddf7d04d38d37de359dd7f8a8a6040516103559291906106a2565b60405180910390a45050949350505050565b61036f6103d8565b600180546001600160a01b0383166001600160a01b031990911681179091556103a06000546001600160a01b031690565b6001600160a01b03167f38d16b8cac22d99fc7c124b9cd0de2d3fa1faef420bfe791d8c362d765e2270060405160405180910390a350565b6000546001600160a01b031633146101e35760405163118cdaa760e01b8152336004820152602401610219565b600180546001600160a01b031916905561022b81600080546001600160a01b038381166001600160a01b0319831681178455604051919092169283917f8be0079c531659141344cd1fd0a4f28419497f9722a3daafe3b4186f6b6457e09190a35050565b61041c806106d183390190565b80356001600160a01b038116811461048d57600080fd5b919050565b6000602082840312156104a457600080fd5b6104ad82610476565b9392505050565b634e487b7160e01b600052604160045260246000fd5b600082601f8301126104db57600080fd5b813567ffffffffffffffff8111156104f5576104f56104b4565b604051601f8201601f19908116603f0116810167ffffffffffffffff81118282101715610524576105246104b4565b60405281815283820160200185101561053c57600080fd5b816020850160208301376000918101602001919091529392505050565b6000806000806080858703121561056f57600080fd5b843567ffffffffffffffff81111561058657600080fd5b610592878288016104ca565b945050602085013567ffffffffffffffff8111156105af57600080fd5b6105bb878288016104ca565b9350506105ca60408601610476565b91506105d860608601610476565b905092959194509250565b6000815180845260005b81811015610609576020818501810151868301820152016105ed565b506000602082860101526020601f19601f83011685010191505092915050565b60808152600061063c60808301876105e3565b828103602084015261064e81876105e3565b9150506001600160a01b03841660408301526001600160a01b038316606083015295945050505050565b6001600160a01b038316815260406020820152600061069a60408301846105e3565b949350505050565b6040815260006106b560408301856105e3565b82810360208401526106c781856105e3565b9594505050505056fe608060405260405161041c38038061041c83398101604081905261002291610267565b61002c8282610033565b5050610357565b61003c82610092565b6040516001600160a01b038316907fbc7cd75a20ee27fd9adebab32041f755214dbc6bffa90cc0225b39da2e5c2d3b90600090a280511561008657610081828261010e565b505050565b61008e610185565b5050565b806001600160a01b03163b6000036100cd57604051634c9c8ce360e01b81526001600160a01b03821660048201526024015b60405180910390fd5b7f360894a13ba1a3210667c828492db98dca3e2076cc3735a920a3ca505d382bbc80546001600160a01b0319166001600160a01b0392909216919091179055565b6060600080846001600160a01b03168460405161012b919061033b565b600060405180830381855af49150503d8060008114610166576040519150601f19603f3d011682016040523d82523d6000602084013e61016b565b606091505b50909250905061017c8583836101a6565b95945050505050565b34156101a45760405163b398979f60e01b815260040160405180910390fd5b565b6060826101bb576101b682610205565b6101fe565b81511580156101d257506001600160a01b0384163b155b156101fb57604051639996b31560e01b81526001600160a01b03851660048201526024016100c4565b50805b9392505050565b80511561021457805160208201fd5b60405163d6bda27560e01b815260040160405180910390fd5b634e487b7160e01b600052604160045260246000fd5b60005b8381101561025e578181015183820152602001610246565b50506000910152565b6000806040838503121561027a57600080fd5b82516001600160a01b038116811461029157600080fd5b60208401519092506001600160401b038111156102ad57600080fd5b8301601f810185136102be57600080fd5b80516001600160401b038111156102d7576102d761022d565b604051601f8201601f19908116603f011681016001600160401b03811182821017156103055761030561022d565b60405281815282820160200187101561031d57600080fd5b61032e826020830160208601610243565b8093505050509250929050565b6000825161034d818460208701610243565b9190910192915050565b60b7806103656000396000f3fe6080604052600a600c565b005b60186014601a565b605e565b565b600060597f360894a13ba1a3210667c828492db98dca3e2076cc3735a920a3ca505d382bbc5473ffffffffffffffffffffffffffffffffffffffff1690565b905090565b3660008037600080366000845af43d6000803e808015607c573d6000f35b3d6000fdfea26469706673582212207e9b47b27bb146236b91923afaf766712466298352d2127a7a8ac26622b08e0964736f6c634300081e0033a26469706673582212200d8b2471999835b790ae5378746da01d034bbbcaaaabd2883574970fd074d62f64736f6c634300081e0033",
  "devdoc": {
    "details": "Owner can update the implementation address for proxy deployments",
    "errors": {
      "OwnableInvalidOwner(address)": [
        {
          "details": "The owner is not a valid owner account. (eg. `address(0)`)"
        }
      ],
      "OwnableUnauthorizedAccount(address)": [
        {
          "details": "The caller account is not authorized to perform an operation."
        }
      ]
    },
    "events": {
      "ImplementationUpdated(address,address)": {
        "params": {
          "newImplementation": "New implementation address",
          "oldImplementation": "Previous implementation address"
        }
      },
      "UpgradableVaultCreated(address,string,string,address,address)": {
        "params": {
          "asset": "Address of the underlying asset",
          "name": "Name of the vault token",
          "owner": "Owner of the vault",
          "symbol": "Symbol of the vault token",
          "vault": "Address of the newly created vault proxy"
        }
      }
    },
    "kind": "dev",
    "methods": {
      "acceptOwnership()": {
        "details": "The new owner accepts the ownership transfer."
      },
      "constructor": {
        "params": {
          "owner_": "Address of the initial owner",
          "vaultImplementation_": "Address of the YieldVault implementation contract (for proxy deployments)"
        }
      },
      "createVault(string,string,address,address)": {
        "params": {
          "asset_": "Address of the underlying asset (ERC20 token)",
          "name_": "Name of the vault token (e.g., \"Vesper vault USDC\")",
          "owner_": "Address that will own the created vault",
          "symbol_": "Symbol of the vault token (e.g., \"vUSDC\")"
        },
        "returns": {
          "vault": "Address of the newly created vault"
        }
      },
      "owner()": {
        "details": "Returns the address of the current owner."
      },
      "pendingOwner()": {
        "details": "Returns the address of the pending owner."
      },
      "renounceOwnership()": {
        "details": "Leaves the contract without owner. It will not be possible to call `onlyOwner` functions. Can only be called by the current owner. NOTE: Renouncing ownership will leave the contract without an owner, thereby disabling any functionality that is only available to the owner."
      },
      "transferOwnership(address)": {
        "details": "Starts the ownership transfer of the contract to a new account. Replaces the pending transfer if there is one. Can only be called by the current owner. Setting `newOwner` to the zero address is allowed; this can be used to cancel an initiated ownership transfer."
      },
      "updateImplementation(address)": {
        "details": "Only callable by the owner",
        "params": {
          "newImplementation_": "Address of the new YieldVault implementation contract"
        }
      }
    },
    "title": "YieldVaultFactory",
    "version": 1
  },
  "userdoc": {
    "events": {
      "ImplementationUpdated(address,address)": {
        "notice": "Emitted when the implementation address is updated"
      },
      "UpgradableVaultCreated(address,string,string,address,address)": {
        "notice": "Emitted when a new upgradable vault is created"
      }
    },
    "kind": "user",
    "methods": {
      "constructor": {
        "notice": "Constructor sets the YieldVault implementation address and initial owner"
      },
      "createVault(string,string,address,address)": {
        "notice": "Creates a new upgradable YieldVault"
      },
      "updateImplementation(address)": {
        "notice": "Updates the YieldVault implementation address"
      },
      "vaultImplementation()": {
        "notice": "Address of the YieldVault implementation contract (for proxy deployments)"
      }
    },
    "notice": "Factory contract for creating YieldVault instances with owner controls",
    "version": 1
  },
  "storageLayout": {
    "storage": [
      {
        "astId": 2989,
        "contract": "src/YieldVaultFactory.sol:YieldVaultFactory",
        "label": "_owner",
        "offset": 0,
        "slot": "0",
        "type": "t_address"
      },
      {
        "astId": 3137,
        "contract": "src/YieldVaultFactory.sol:YieldVaultFactory",
        "label": "_pendingOwner",
        "offset": 0,
        "slot": "1",
        "type": "t_address"
      },
      {
        "astId": 15615,
        "contract": "src/YieldVaultFactory.sol:YieldVaultFactory",
        "label": "vaultImplementation",
        "offset": 0,
        "slot": "2",
        "type": "t_address"
      }
    ],
    "types": {
      "t_address": {
        "encoding": "inplace",
        "label": "address",
        "numberOfBytes": "20"
      }
    }
  }
}